{
  "contractName": "Deed",
  "abi": [
    {
      "constant": true,
      "inputs": [],
      "name": "creationDate",
      "outputs": [
        {
          "name": "",
          "type": "uint256"
        }
      ],
      "payable": false,
      "stateMutability": "view",
      "type": "function"
    },
    {
      "constant": true,
      "inputs": [],
      "name": "registrar",
      "outputs": [
        {
          "name": "",
          "type": "address"
        }
      ],
      "payable": false,
      "stateMutability": "view",
      "type": "function"
    },
    {
      "constant": true,
      "inputs": [],
      "name": "value",
      "outputs": [
        {
          "name": "",
          "type": "uint256"
        }
      ],
      "payable": false,
      "stateMutability": "view",
      "type": "function"
    },
    {
      "constant": true,
      "inputs": [],
      "name": "previousOwner",
      "outputs": [
        {
          "name": "",
          "type": "address"
        }
      ],
      "payable": false,
      "stateMutability": "view",
      "type": "function"
    },
    {
      "constant": true,
      "inputs": [],
      "name": "owner",
      "outputs": [
        {
          "name": "",
          "type": "address"
        }
      ],
      "payable": false,
      "stateMutability": "view",
      "type": "function"
    },
    {
      "inputs": [
        {
          "name": "_owner",
          "type": "address"
        }
      ],
      "payable": true,
      "stateMutability": "payable",
      "type": "constructor"
    },
    {
      "anonymous": false,
      "inputs": [
        {
          "indexed": false,
          "name": "newOwner",
          "type": "address"
        }
      ],
      "name": "OwnerChanged",
      "type": "event"
    },
    {
      "anonymous": false,
      "inputs": [],
      "name": "DeedClosed",
      "type": "event"
    },
    {
      "constant": false,
      "inputs": [
        {
          "name": "newOwner",
          "type": "address"
        }
      ],
      "name": "setOwner",
      "outputs": [],
      "payable": false,
      "stateMutability": "nonpayable",
      "type": "function"
    },
    {
      "constant": false,
      "inputs": [
        {
          "name": "newRegistrar",
          "type": "address"
        }
      ],
      "name": "setRegistrar",
      "outputs": [],
      "payable": false,
      "stateMutability": "nonpayable",
      "type": "function"
    },
    {
      "constant": false,
      "inputs": [
        {
          "name": "newValue",
          "type": "uint256"
        },
        {
          "name": "throwOnFailure",
          "type": "bool"
        }
      ],
      "name": "setBalance",
      "outputs": [],
      "payable": false,
      "stateMutability": "nonpayable",
      "type": "function"
    },
    {
      "constant": false,
      "inputs": [
        {
          "name": "refundRatio",
          "type": "uint256"
        }
      ],
      "name": "closeDeed",
      "outputs": [],
      "payable": false,
      "stateMutability": "nonpayable",
      "type": "function"
    },
    {
      "constant": false,
      "inputs": [],
      "name": "destroyDeed",
      "outputs": [],
      "payable": false,
      "stateMutability": "nonpayable",
      "type": "function"
    }
  ],
  "bytecode": "0x60806040526040516020806104d5833981016040525160018054600160a060020a03909216600160a060020a0319928316178155600080549092163317909155426003556005805460ff1916909117905534600455610472806100636000396000f3006080604052600436106100a35763ffffffff7c010000000000000000000000000000000000000000000000000000000060003504166305b3441081146100a85780630b5ab3d5146100cf57806313af4035146100e65780632b20e397146101075780633fa4f24514610138578063674f220f1461014d5780638da5cb5b14610162578063b0c8097214610177578063bbe4277114610194578063faab9d39146101ac575b600080fd5b3480156100b457600080fd5b506100bd6101cd565b60408051918252519081900360200190f35b3480156100db57600080fd5b506100e46101d3565b005b3480156100f257600080fd5b506100e4600160a060020a0360043516610218565b34801561011357600080fd5b5061011c6102b6565b60408051600160a060020a039092168252519081900360200190f35b34801561014457600080fd5b506100bd6102c5565b34801561015957600080fd5b5061011c6102cb565b34801561016e57600080fd5b5061011c6102da565b34801561018357600080fd5b506100e460043560243515156102e9565b3480156101a057600080fd5b506100e4600435610369565b3480156101b857600080fd5b506100e4600160a060020a0360043516610400565b60035481565b60055460ff16156101e357600080fd5b600154604051600160a060020a0390911690303180156108fc02916000818181858888f19350505050156102165761deadff5b565b600054600160a060020a0316331461022f57600080fd5b600160a060020a038116151561024457600080fd5b600180546002805473ffffffffffffffffffffffffffffffffffffffff19908116600160a060020a03808516919091179092559084169116811790915560408051918252517fa2ea9883a321a3e97b8266c2b078bfeec6d50c711ed71f874a90d500ae2eaf369181900360200190a150565b600054600160a060020a031681565b60045481565b600254600160a060020a031681565b600154600160a060020a031681565b600054600160a060020a0316331461030057600080fd5b60055460ff16151561031157600080fd5b60045482111561032057600080fd5b6004829055600154604051600160a060020a0390911690303184900380156108fc02916000818181858888f193505050508061035a575080155b151561036557600080fd5b5050565b600054600160a060020a0316331461038057600080fd5b60055460ff16151561039157600080fd5b6005805460ff1916905560405161dead906103e83031848203020480156108fc02916000818181858888f1935050505015156103cc57600080fd5b6040517fbb2ce2f51803bba16bc85282b47deeea9a5c6223eabea1077be696b3f265cf1390600090a16103fd6101d3565b50565b600054600160a060020a0316331461041757600080fd5b6000805473ffffffffffffffffffffffffffffffffffffffff1916600160a060020a03929092169190911790555600a165627a7a723058204fc9deba2cff51858414d322a79d584cbbb4178df2e91972b6707c257412ed930029",
  "source": "pragma solidity ^0.4.18;\n\n/**\n * @title Deed to hold ether in exchange for ownership of a node\n * @dev The deed can be controlled only by the registrar and can only send ether back to the owner.\n */\ncontract Deed {\n\n    address constant burn = 0xdead;\n\n    address public registrar;\n    address public owner;\n    address public previousOwner;\n\n    uint public creationDate;\n    uint public value;\n\n    bool active;\n\n    event OwnerChanged(address newOwner);\n    event DeedClosed();\n\n    modifier onlyRegistrar {\n        require(msg.sender == registrar);\n        _;\n    }\n\n    modifier onlyActive {\n        require(active);\n        _;\n    }\n\n    function Deed(address _owner) public payable {\n        owner = _owner;\n        registrar = msg.sender;\n        creationDate = now;\n        active = true;\n        value = msg.value;\n    }\n\n    function setOwner(address newOwner) public onlyRegistrar {\n        require(newOwner != 0);\n        previousOwner = owner;  // This allows contracts to check who sent them the ownership\n        owner = newOwner;\n        OwnerChanged(newOwner);\n    }\n\n    function setRegistrar(address newRegistrar) public onlyRegistrar {\n        registrar = newRegistrar;\n    }\n\n    function setBalance(uint newValue, bool throwOnFailure) public onlyRegistrar onlyActive {\n        // Check if it has enough balance to set the value\n        require(value >= newValue);\n        value = newValue;\n        // Send the difference to the owner\n        require(owner.send(this.balance - newValue) || !throwOnFailure);\n    }\n\n    /**\n     * @dev Close a deed and refund a specified fraction of the bid value\n     *\n     * @param refundRatio The amount*1/1000 to refund\n     */\n    function closeDeed(uint refundRatio) public onlyRegistrar onlyActive {\n        active = false;\n        require(burn.send(((1000 - refundRatio) * this.balance)/1000));\n        DeedClosed();\n        destroyDeed();\n    }\n\n    /**\n     * @dev Close a deed and refund a specified fraction of the bid value\n     */\n    function destroyDeed() public {\n        require(!active);\n\n        // Instead of selfdestruct(owner), invoke owner fallback function to allow\n        // owner to log an event if desired; but owner should also be aware that\n        // its fallback function can also be invoked by setBalance\n        if (owner.send(this.balance)) {\n            selfdestruct(burn);\n        }\n    }\n}\n",
  "sourcePath": "@ensdomains/ens/contracts/Deed.sol",
  "compiler": {
    "name": "solc",
    "version": "0.4.24+commit.e67f0147.Emscripten.clang"
  },
  "schemaVersion": "2.0.1",
  "updatedAt": "2018-08-20T08:56:49.209Z"
}