{
  "contractName": "DirectListing",
  "abi": [
    {
      "constant": true,
      "inputs": [
        {
          "name": "",
          "type": "bytes32"
        }
      ],
      "name": "offerings",
      "outputs": [
        {
          "name": "nodeOwner",
          "type": "address"
        },
        {
          "name": "price",
          "type": "uint256"
        },
        {
          "name": "expireAt",
          "type": "uint256"
        }
      ],
      "payable": false,
      "stateMutability": "view",
      "type": "function"
    },
    {
      "inputs": [
        {
          "name": "_registrar",
          "type": "address"
        }
      ],
      "payable": false,
      "stateMutability": "nonpayable",
      "type": "constructor"
    },
    {
      "anonymous": false,
      "inputs": [
        {
          "indexed": true,
          "name": "node",
          "type": "bytes32"
        },
        {
          "indexed": true,
          "name": "owner",
          "type": "address"
        },
        {
          "indexed": false,
          "name": "price",
          "type": "uint256"
        },
        {
          "indexed": false,
          "name": "expireAt",
          "type": "uint256"
        }
      ],
      "name": "Offered",
      "type": "event"
    },
    {
      "anonymous": false,
      "inputs": [
        {
          "indexed": true,
          "name": "node",
          "type": "bytes32"
        },
        {
          "indexed": true,
          "name": "newOwner",
          "type": "address"
        },
        {
          "indexed": false,
          "name": "price",
          "type": "uint256"
        }
      ],
      "name": "Bought",
      "type": "event"
    },
    {
      "anonymous": false,
      "inputs": [
        {
          "indexed": true,
          "name": "node",
          "type": "bytes32"
        }
      ],
      "name": "Canceled",
      "type": "event"
    },
    {
      "anonymous": false,
      "inputs": [
        {
          "indexed": true,
          "name": "node",
          "type": "bytes32"
        },
        {
          "indexed": true,
          "name": "owner",
          "type": "address"
        }
      ],
      "name": "DomainWithdrawn",
      "type": "event"
    },
    {
      "constant": true,
      "inputs": [
        {
          "name": "_hash",
          "type": "bytes32"
        }
      ],
      "name": "isOffered",
      "outputs": [
        {
          "name": "",
          "type": "bool"
        }
      ],
      "payable": false,
      "stateMutability": "view",
      "type": "function"
    },
    {
      "constant": false,
      "inputs": [
        {
          "name": "_hash",
          "type": "bytes32"
        },
        {
          "name": "_price",
          "type": "uint256"
        },
        {
          "name": "_expireAt",
          "type": "uint256"
        }
      ],
      "name": "offer",
      "outputs": [],
      "payable": false,
      "stateMutability": "nonpayable",
      "type": "function"
    },
    {
      "constant": false,
      "inputs": [
        {
          "name": "_hash",
          "type": "bytes32"
        }
      ],
      "name": "cancelOffer",
      "outputs": [],
      "payable": false,
      "stateMutability": "nonpayable",
      "type": "function"
    },
    {
      "constant": false,
      "inputs": [
        {
          "name": "_hash",
          "type": "bytes32"
        }
      ],
      "name": "cancelOfferAndWithdraw",
      "outputs": [],
      "payable": false,
      "stateMutability": "nonpayable",
      "type": "function"
    },
    {
      "constant": false,
      "inputs": [
        {
          "name": "_hash",
          "type": "bytes32"
        }
      ],
      "name": "buy",
      "outputs": [],
      "payable": true,
      "stateMutability": "payable",
      "type": "function"
    }
  ],
  "bytecode": "0x608060405234801561001057600080fd5b50604051602080610ccd8339810160405251600160a060020a038116151561003757600080fd5b60018054600160a060020a031916600160a060020a0392909216919091179055610c67806100666000396000f30060806040526004361061005e5763ffffffff60e060020a6000350416632b8bf4348114610063578063498196721461008f5780636eb97197146100af5780639c9a1061146100ef578063b8ebdb46146100fa578063f952279e14610112575b600080fd5b34801561006f57600080fd5b5061007b60043561012a565b604080519115158252519081900360200190f35b34801561009b57600080fd5b506100ad600435602435604435610168565b005b3480156100bb57600080fd5b506100c76004356103e1565b60408051600160a060020a039094168452602084019290925282820152519081900360600190f35b6100ad60043561040d565b34801561010657600080fd5b506100ad60043561074c565b34801561011e57600080fd5b506100ad600435610a2b565b600081815260026020526040812054600160a060020a0316158015906101625750600082815260026020819052604090912001544211155b92915050565b6001546040805160e160020a63133db4910281526004810186905290516000928392600160a060020a039091169163267b69229160248082019260a09290919082900301818787803b1580156101bd57600080fd5b505af11580156101d1573d6000803e3d6000fd5b505050506040513d60a08110156101e757600080fd5b50602001519150819050600160a060020a03811615801590610283575033600160a060020a031681600160a060020a031663674f220f6040518163ffffffff1660e060020a028152600401602060405180830381600087803b15801561024c57600080fd5b505af1158015610260573d6000803e3d6000fd5b505050506040513d602081101561027657600080fd5b5051600160a060020a0316145b8015610309575030600160a060020a031681600160a060020a0316638da5cb5b6040518163ffffffff1660e060020a028152600401602060405180830381600087803b1580156102d257600080fd5b505af11580156102e6573d6000803e3d6000fd5b505050506040513d60208110156102fc57600080fd5b5051600160a060020a0316145b151561031457600080fd5b60648311801561032357504283115b80156103325750606442018310155b151561033d57600080fd5b6040805160608101825233808252602080830188815283850188815260008b81526002808552908790209551865473ffffffffffffffffffffffffffffffffffffffff1916600160a060020a03909116178655915160018601555193019290925582518781529182018690528251909288927f76f83495fb03eff03b586f20387c72e9809f7ec1a27fc1b8a9a87c79b482982d929081900390910190a35050505050565b6002602081905260009182526040909120805460018201549190920154600160a060020a039092169183565b6000806104198361012a565b801561043657506000838152600260205260409020600101543410155b151561044157600080fd5b6001546040805160e160020a63133db491028152600481018690529051600160a060020a039092169163267b69229160248082019260a0929091908290030181600087803b15801561049257600080fd5b505af11580156104a6573d6000803e3d6000fd5b505050506040513d60a08110156104bc57600080fd5b50602001519150819050600160a060020a03811615801590610558575030600160a060020a031681600160a060020a0316638da5cb5b6040518163ffffffff1660e060020a028152600401602060405180830381600087803b15801561052157600080fd5b505af1158015610535573d6000803e3d6000fd5b505050506040513d602081101561054b57600080fd5b5051600160a060020a0316145b8015610605575060008381526002602090815260408083205481517f674f220f0000000000000000000000000000000000000000000000000000000081529151600160a060020a03918216949186169363674f220f93600480820194929392918390030190829087803b1580156105ce57600080fd5b505af11580156105e2573d6000803e3d6000fd5b505050506040513d60208110156105f857600080fd5b5051600160a060020a0316145b151561061057600080fd5b600083815260026020526040808220549051600160a060020a03909116913480156108fc02929091818181858888f19350505050158015610655573d6000803e3d6000fd5b50600154604080517f79ce9fac000000000000000000000000000000000000000000000000000000008152600481018690523360248201529051600160a060020a03909216916379ce9fac9160448082019260009290919082900301818387803b1580156106c257600080fd5b505af11580156106d6573d6000803e3d6000fd5b5050506000848152600260208181526040808420805473ffffffffffffffffffffffffffffffffffffffff1916815560018101859055909201929092558051348152905133935086927fffa101c6ca2880d2c4f3240ea96a0cdbac504f2ee13706c9cf67c1b27219df94928290030190a3505050565b6001546040805160e160020a63133db4910281526004810184905290516000928392600160a060020a039091169163267b69229160248082019260a09290919082900301818787803b1580156107a157600080fd5b505af11580156107b5573d6000803e3d6000fd5b505050506040513d60a08110156107cb57600080fd5b50602001519150819050600160a060020a03811615801590610867575033600160a060020a031681600160a060020a031663674f220f6040518163ffffffff1660e060020a028152600401602060405180830381600087803b15801561083057600080fd5b505af1158015610844573d6000803e3d6000fd5b505050506040513d602081101561085a57600080fd5b5051600160a060020a0316145b80156108ed575030600160a060020a031681600160a060020a0316638da5cb5b6040518163ffffffff1660e060020a028152600401602060405180830381600087803b1580156108b657600080fd5b505af11580156108ca573d6000803e3d6000fd5b505050506040513d60208110156108e057600080fd5b5051600160a060020a0316145b15156108f857600080fd5b600083815260026020526040902054600160a060020a031615610975576000838152600260208190526040808320805473ffffffffffffffffffffffffffffffffffffffff19168155600181018490559091018290555184917f134fdd648feeaf30251f0157f9624ef8608ff9a042aad6d13e73f35d21d3f88d91a25b600154604080517f79ce9fac000000000000000000000000000000000000000000000000000000008152600481018690523360248201529051600160a060020a03909216916379ce9fac9160448082019260009290919082900301818387803b1580156109e157600080fd5b505af11580156109f5573d6000803e3d6000fd5b50506040513392508591507f2fc1d00f5f850aa7dcd8e002722a487c630210ca9ebda27b4bb2071de3e103a890600090a3505050565b6001546040805160e160020a63133db4910281526004810184905290516000928392600160a060020a039091169163267b69229160248082019260a09290919082900301818787803b158015610a8057600080fd5b505af1158015610a94573d6000803e3d6000fd5b505050506040513d60a0811015610aaa57600080fd5b50602001519150819050600160a060020a03811615801590610b46575033600160a060020a031681600160a060020a031663674f220f6040518163ffffffff1660e060020a028152600401602060405180830381600087803b158015610b0f57600080fd5b505af1158015610b23573d6000803e3d6000fd5b505050506040513d6020811015610b3957600080fd5b5051600160a060020a0316145b8015610bcc575030600160a060020a031681600160a060020a0316638da5cb5b6040518163ffffffff1660e060020a028152600401602060405180830381600087803b158015610b9557600080fd5b505af1158015610ba9573d6000803e3d6000fd5b505050506040513d6020811015610bbf57600080fd5b5051600160a060020a0316145b1515610bd757600080fd5b6000838152600260208190526040808320805473ffffffffffffffffffffffffffffffffffffffff19168155600181018490559091018290555184917f134fdd648feeaf30251f0157f9624ef8608ff9a042aad6d13e73f35d21d3f88d91a25050505600a165627a7a72305820612bc4388cd627448605efe61846c65e898d2515e2f49135c547930a8dc366100029",
  "source": "pragma solidity 0.4.24;\n\nimport \"@ensdomains/ens/contracts/ENSRegistry.sol\";\nimport \"@ensdomains/ens/contracts/ENS.sol\";\nimport \"@ensdomains/ens/contracts/Deed.sol\";\nimport \"./ens/TestRegistrarSimplified.sol\";\n\ncontract DirectListing {\n    event Offered(bytes32 indexed node, address indexed owner, uint256 price, uint256 expireAt);\n    event Bought(bytes32 indexed node, address indexed newOwner, uint256 price);\n    event Canceled(bytes32 indexed node);\n    event DomainWithdrawn(bytes32 indexed node, address indexed owner);\n\n    ENS ens;\n    Registrar registrar;\n\n    struct Offering {\n        address nodeOwner;\n        uint256 price;\n        uint256 expireAt;\n    }\n\n    // Minimum listing time in seconds\n    uint constant MIN_LISTING_TIME = 100;\n\n    mapping (bytes32 => Offering) public offerings;\n\n    constructor(address _registrar) public {\n        require(_registrar != 0);\n        registrar = Registrar(_registrar);\n    }\n\n    // https://ethereum.stackexchange.com/questions/7853/is-the-block-timestamp-value-in-solidity-seconds-or-milliseconds\n    function isOffered(bytes32 _hash) public view returns (bool) {\n        return ((offerings[_hash].nodeOwner != 0x0) && (offerings[_hash].expireAt >= block.timestamp));\n    }\n\n    function offer(bytes32 _hash, uint256 _price, uint256 _expireAt) external {\n        var (,deedAddr,,,) = registrar.entries(_hash);\n        var deed = Deed(deedAddr);\n\n        require((deedAddr != 0x0) && (deed.previousOwner() == msg.sender) && (deed.owner() == address(this)));\n        require((_expireAt > MIN_LISTING_TIME) && (_expireAt > block.timestamp) && (_expireAt >= (block.timestamp + MIN_LISTING_TIME)));\n\n        // the deed owner is the msg.sender\n        // node should not be 0 or already offered\n        // nodeOwner not 0\n        // block.timestamp <= _expireAt\n\n        offerings[_hash] = Offering(msg.sender, _price, _expireAt);\n\n        emit Offered(_hash, msg.sender, _price, _expireAt);\n    }\n\n    function cancelOffer(bytes32 _hash) external {\n        // https://ethereum.stackexchange.com/questions/28972/who-is-msg-sender-when-calling-a-contract-from-a-contract\n        // transfer back the domain to the owner\n        var (,deedAddr,,,) = registrar.entries(_hash);\n        var deed = Deed(deedAddr);\n        require((deedAddr != 0x0) && (deed.previousOwner() == msg.sender) && (deed.owner() == address(this)));\n\n        delete offerings[_hash];\n\n        emit Canceled(_hash);\n    }\n\n    function cancelOfferAndWithdraw(bytes32 _hash) external {\n        // transfer back the domain to the owner\n        var (,deedAddr,,,) = registrar.entries(_hash);\n        var deed = Deed(deedAddr);\n        require((deedAddr != 0x0) && (deed.previousOwner() == msg.sender) && (deed.owner() == address(this)));\n\n        if (offerings[_hash].nodeOwner != 0x0)\n        {\n            delete offerings[_hash];\n\n            emit Canceled(_hash);\n        }\n\n        registrar.transfer(_hash, msg.sender);\n\n        emit DomainWithdrawn(_hash, msg.sender);\n    }\n\n    function buy(bytes32 _hash) external payable {\n        require(isOffered(_hash) && (msg.value >= offerings[_hash].price));\n\n        var (,deedAddr,,,) = registrar.entries(_hash);\n        var deed = Deed(deedAddr);\n        require((deedAddr != 0x0) && (deed.owner() == address(this)) && (deed.previousOwner() == offerings[_hash].nodeOwner));\n\n        offerings[_hash].nodeOwner.transfer(msg.value);\n\n        registrar.transfer(_hash, msg.sender);\n\n        delete offerings[_hash];\n\n        emit Bought(_hash, msg.sender, msg.value);\n    }\n}\n",
  "sourcePath": "/Users/vietlq/projects/ens-namex/contracts/DirectListing.sol",
  "compiler": {
    "name": "solc",
    "version": "0.4.24+commit.e67f0147.Emscripten.clang"
  },
  "schemaVersion": "2.0.1",
  "updatedAt": "2018-08-15T07:22:48.992Z"
}