{
  "contractName": "DirectListing",
  "abi": [
    {
      "constant": true,
      "inputs": [
        {
          "name": "",
          "type": "bytes32"
        }
      ],
      "name": "offerings",
      "outputs": [
        {
          "name": "nodeOwner",
          "type": "address"
        },
        {
          "name": "price",
          "type": "uint256"
        },
        {
          "name": "expireAt",
          "type": "uint256"
        }
      ],
      "payable": false,
      "stateMutability": "view",
      "type": "function"
    },
    {
      "inputs": [
        {
          "name": "_registrar",
          "type": "address"
        }
      ],
      "payable": false,
      "stateMutability": "nonpayable",
      "type": "constructor"
    },
    {
      "anonymous": false,
      "inputs": [
        {
          "indexed": true,
          "name": "node",
          "type": "bytes32"
        },
        {
          "indexed": true,
          "name": "owner",
          "type": "address"
        },
        {
          "indexed": false,
          "name": "price",
          "type": "uint256"
        },
        {
          "indexed": false,
          "name": "expireAt",
          "type": "uint256"
        }
      ],
      "name": "Offered",
      "type": "event"
    },
    {
      "anonymous": false,
      "inputs": [
        {
          "indexed": true,
          "name": "node",
          "type": "bytes32"
        },
        {
          "indexed": true,
          "name": "newOwner",
          "type": "address"
        },
        {
          "indexed": false,
          "name": "price",
          "type": "uint256"
        }
      ],
      "name": "Bought",
      "type": "event"
    },
    {
      "anonymous": false,
      "inputs": [
        {
          "indexed": true,
          "name": "node",
          "type": "bytes32"
        }
      ],
      "name": "Canceled",
      "type": "event"
    },
    {
      "anonymous": false,
      "inputs": [
        {
          "indexed": true,
          "name": "node",
          "type": "bytes32"
        },
        {
          "indexed": true,
          "name": "owner",
          "type": "address"
        }
      ],
      "name": "DomainWithdrawn",
      "type": "event"
    },
    {
      "constant": true,
      "inputs": [
        {
          "name": "_hash",
          "type": "bytes32"
        }
      ],
      "name": "isOffered",
      "outputs": [
        {
          "name": "",
          "type": "bool"
        }
      ],
      "payable": false,
      "stateMutability": "view",
      "type": "function"
    },
    {
      "constant": true,
      "inputs": [
        {
          "name": "_hash",
          "type": "bytes32"
        }
      ],
      "name": "deedAddr",
      "outputs": [
        {
          "name": "",
          "type": "address"
        }
      ],
      "payable": false,
      "stateMutability": "view",
      "type": "function"
    },
    {
      "constant": true,
      "inputs": [
        {
          "name": "_hash",
          "type": "bytes32"
        }
      ],
      "name": "deedOwner",
      "outputs": [
        {
          "name": "",
          "type": "address"
        }
      ],
      "payable": false,
      "stateMutability": "view",
      "type": "function"
    },
    {
      "constant": true,
      "inputs": [
        {
          "name": "_hash",
          "type": "bytes32"
        }
      ],
      "name": "deedPreviousOwner",
      "outputs": [
        {
          "name": "",
          "type": "address"
        }
      ],
      "payable": false,
      "stateMutability": "view",
      "type": "function"
    },
    {
      "constant": false,
      "inputs": [
        {
          "name": "_hash",
          "type": "bytes32"
        },
        {
          "name": "_price",
          "type": "uint256"
        },
        {
          "name": "_expireAt",
          "type": "uint256"
        }
      ],
      "name": "offer",
      "outputs": [],
      "payable": false,
      "stateMutability": "nonpayable",
      "type": "function"
    },
    {
      "constant": false,
      "inputs": [
        {
          "name": "_hash",
          "type": "bytes32"
        }
      ],
      "name": "cancelOffer",
      "outputs": [],
      "payable": false,
      "stateMutability": "nonpayable",
      "type": "function"
    },
    {
      "constant": false,
      "inputs": [
        {
          "name": "_hash",
          "type": "bytes32"
        }
      ],
      "name": "cancelOfferAndWithdraw",
      "outputs": [],
      "payable": false,
      "stateMutability": "nonpayable",
      "type": "function"
    },
    {
      "constant": false,
      "inputs": [
        {
          "name": "_hash",
          "type": "bytes32"
        }
      ],
      "name": "buy",
      "outputs": [],
      "payable": true,
      "stateMutability": "payable",
      "type": "function"
    }
  ],
  "bytecode": "0x608060405234801561001057600080fd5b50604051602080610f898339810160405251600160a060020a038116151561003757600080fd5b60018054600160a060020a031916600160a060020a0392909216919091179055610f23806100666000396000f30060806040526004361061007f5763ffffffff60e060020a6000350416632b8bf43481146100845780633628f6f8146100b057806349819672146100e45780636eb971971461010457806395f57507146101445780639c9a10611461015c578063a8df507514610167578063b8ebdb461461017f578063f952279e14610197575b600080fd5b34801561009057600080fd5b5061009c6004356101af565b604080519115158252519081900360200190f35b3480156100bc57600080fd5b506100c86004356101ed565b60408051600160a060020a039092168252519081900360200190f35b3480156100f057600080fd5b506101026004356024356044356102f5565b005b34801561011057600080fd5b5061011c60043561055d565b60408051600160a060020a039094168452602084019290925282820152519081900360600190f35b34801561015057600080fd5b506100c8600435610589565b61010260043561062a565b34801561017357600080fd5b506100c8600435610958565b34801561018b57600080fd5b50610102600435610a2a565b3480156101a357600080fd5b50610102600435610cf8565b600081815260026020526040812054600160a060020a0316158015906101e75750600082815260026020819052604090912001544211155b92915050565b6040805160e060020a6395f575070281526004810183905290516000918291829130916395f575079160248082019260209290919082900301818787803b15801561023757600080fd5b505af115801561024b573d6000803e3d6000fd5b505050506040513d602081101561026157600080fd5b50519150600160a060020a038216151561027e57600092506102ee565b81905080600160a060020a0316638da5cb5b6040518163ffffffff1660e060020a028152600401602060405180830381600087803b1580156102bf57600080fd5b505af11580156102d3573d6000803e3d6000fd5b505050506040513d60208110156102e957600080fd5b505192505b5050919050565b6040805160e060020a6395f57507028152600481018590529051600091829130916395f5750791602480830192602092919082900301818787803b15801561033c57600080fd5b505af1158015610350573d6000803e3d6000fd5b505050506040513d602081101561036657600080fd5b50519150819050600160a060020a038116158015906103ff575033600160a060020a031681600160a060020a031663674f220f6040518163ffffffff1660e060020a028152600401602060405180830381600087803b1580156103c857600080fd5b505af11580156103dc573d6000803e3d6000fd5b505050506040513d60208110156103f257600080fd5b5051600160a060020a0316145b8015610485575030600160a060020a031681600160a060020a0316638da5cb5b6040518163ffffffff1660e060020a028152600401602060405180830381600087803b15801561044e57600080fd5b505af1158015610462573d6000803e3d6000fd5b505050506040513d602081101561047857600080fd5b5051600160a060020a0316145b151561049057600080fd5b60648311801561049f57504283115b80156104ae5750606442018310155b15156104b957600080fd5b6040805160608101825233808252602080830188815283850188815260008b81526002808552908790209551865473ffffffffffffffffffffffffffffffffffffffff1916600160a060020a03909116178655915160018601555193019290925582518781529182018690528251909288927f76f83495fb03eff03b586f20387c72e9809f7ec1a27fc1b8a9a87c79b482982d929081900390910190a35050505050565b6002602081905260009182526040909120805460018201549190920154600160a060020a039092169183565b600154604080517f267b69220000000000000000000000000000000000000000000000000000000081526004810184905290516000928392600160a060020a039091169163267b69229160248082019260a09290919082900301818787803b1580156105f457600080fd5b505af1158015610608573d6000803e3d6000fd5b505050506040513d60a081101561061e57600080fd5b50602001519392505050565b600080610636836101af565b801561065357506000838152600260205260409020600101543410155b151561065e57600080fd5b6040805160e060020a6395f5750702815260048101859052905130916395f575079160248083019260209291908290030181600087803b1580156106a157600080fd5b505af11580156106b5573d6000803e3d6000fd5b505050506040513d60208110156106cb57600080fd5b50519150819050600160a060020a03811615801590610764575030600160a060020a031681600160a060020a0316638da5cb5b6040518163ffffffff1660e060020a028152600401602060405180830381600087803b15801561072d57600080fd5b505af1158015610741573d6000803e3d6000fd5b505050506040513d602081101561075757600080fd5b5051600160a060020a0316145b8015610811575060008381526002602090815260408083205481517f674f220f0000000000000000000000000000000000000000000000000000000081529151600160a060020a03918216949186169363674f220f93600480820194929392918390030190829087803b1580156107da57600080fd5b505af11580156107ee573d6000803e3d6000fd5b505050506040513d602081101561080457600080fd5b5051600160a060020a0316145b151561081c57600080fd5b600083815260026020526040808220549051600160a060020a03909116913480156108fc02929091818181858888f19350505050158015610861573d6000803e3d6000fd5b50600154604080517f79ce9fac000000000000000000000000000000000000000000000000000000008152600481018690523360248201529051600160a060020a03909216916379ce9fac9160448082019260009290919082900301818387803b1580156108ce57600080fd5b505af11580156108e2573d6000803e3d6000fd5b5050506000848152600260208181526040808420805473ffffffffffffffffffffffffffffffffffffffff1916815560018101859055909201929092558051348152905133935086927fffa101c6ca2880d2c4f3240ea96a0cdbac504f2ee13706c9cf67c1b27219df94928290030190a3505050565b6040805160e060020a6395f575070281526004810183905290516000918291829130916395f575079160248082019260209290919082900301818787803b1580156109a257600080fd5b505af11580156109b6573d6000803e3d6000fd5b505050506040513d60208110156109cc57600080fd5b50519150600160a060020a03821615156109e957600092506102ee565b81905080600160a060020a031663674f220f6040518163ffffffff1660e060020a028152600401602060405180830381600087803b1580156102bf57600080fd5b6040805160e060020a6395f57507028152600481018390529051600091829130916395f5750791602480830192602092919082900301818787803b158015610a7157600080fd5b505af1158015610a85573d6000803e3d6000fd5b505050506040513d6020811015610a9b57600080fd5b50519150819050600160a060020a03811615801590610b34575033600160a060020a031681600160a060020a031663674f220f6040518163ffffffff1660e060020a028152600401602060405180830381600087803b158015610afd57600080fd5b505af1158015610b11573d6000803e3d6000fd5b505050506040513d6020811015610b2757600080fd5b5051600160a060020a0316145b8015610bba575030600160a060020a031681600160a060020a0316638da5cb5b6040518163ffffffff1660e060020a028152600401602060405180830381600087803b158015610b8357600080fd5b505af1158015610b97573d6000803e3d6000fd5b505050506040513d6020811015610bad57600080fd5b5051600160a060020a0316145b1515610bc557600080fd5b600083815260026020526040902054600160a060020a031615610c42576000838152600260208190526040808320805473ffffffffffffffffffffffffffffffffffffffff19168155600181018490559091018290555184917f134fdd648feeaf30251f0157f9624ef8608ff9a042aad6d13e73f35d21d3f88d91a25b600154604080517f79ce9fac000000000000000000000000000000000000000000000000000000008152600481018690523360248201529051600160a060020a03909216916379ce9fac9160448082019260009290919082900301818387803b158015610cae57600080fd5b505af1158015610cc2573d6000803e3d6000fd5b50506040513392508591507f2fc1d00f5f850aa7dcd8e002722a487c630210ca9ebda27b4bb2071de3e103a890600090a3505050565b6040805160e060020a6395f57507028152600481018390529051600091829130916395f5750791602480830192602092919082900301818787803b158015610d3f57600080fd5b505af1158015610d53573d6000803e3d6000fd5b505050506040513d6020811015610d6957600080fd5b50519150819050600160a060020a03811615801590610e02575033600160a060020a031681600160a060020a031663674f220f6040518163ffffffff1660e060020a028152600401602060405180830381600087803b158015610dcb57600080fd5b505af1158015610ddf573d6000803e3d6000fd5b505050506040513d6020811015610df557600080fd5b5051600160a060020a0316145b8015610e88575030600160a060020a031681600160a060020a0316638da5cb5b6040518163ffffffff1660e060020a028152600401602060405180830381600087803b158015610e5157600080fd5b505af1158015610e65573d6000803e3d6000fd5b505050506040513d6020811015610e7b57600080fd5b5051600160a060020a0316145b1515610e9357600080fd5b6000838152600260208190526040808320805473ffffffffffffffffffffffffffffffffffffffff19168155600181018490559091018290555184917f134fdd648feeaf30251f0157f9624ef8608ff9a042aad6d13e73f35d21d3f88d91a25050505600a165627a7a7230582038100875cfa427c08e5a617d53212ebd65df7bd51c3e2715ef620047e076b76c0029",
  "source": "pragma solidity 0.4.24;\n\nimport \"@ensdomains/ens/contracts/ENSRegistry.sol\";\nimport \"@ensdomains/ens/contracts/ENS.sol\";\nimport \"@ensdomains/ens/contracts/Deed.sol\";\nimport \"./ens/TestRegistrarSimplified.sol\";\n\ncontract DirectListing {\n    event Offered(bytes32 indexed node, address indexed owner, uint256 price, uint256 expireAt);\n    event Bought(bytes32 indexed node, address indexed newOwner, uint256 price);\n    event Canceled(bytes32 indexed node);\n    event DomainWithdrawn(bytes32 indexed node, address indexed owner);\n\n    ENS ens;\n    Registrar registrar;\n\n    enum ListingMode { DoesNotExist, HeldByOwner, HeldInEscrow, ListedButExpired, ListedAndValid }\n\n    struct Offering {\n        address nodeOwner;\n        uint256 price;\n        uint256 expireAt;\n    }\n\n    // Minimum listing time in seconds\n    uint constant MIN_LISTING_TIME = 100;\n\n    mapping (bytes32 => Offering) public offerings;\n\n    constructor(address _registrar) public {\n        require(_registrar != 0);\n        registrar = Registrar(_registrar);\n    }\n\n    // https://ethereum.stackexchange.com/questions/7853/is-the-block-timestamp-value-in-solidity-seconds-or-milliseconds\n    function isOffered(bytes32 _hash) public view returns (bool) {\n        return ((offerings[_hash].nodeOwner != 0x0) && (offerings[_hash].expireAt >= block.timestamp));\n    }\n\n    function deedAddr(bytes32 _hash) public view returns (address) {\n        var (,theDeedAddr,,,) = registrar.entries(_hash);\n        return theDeedAddr;\n    }\n\n    function deedOwner(bytes32 _hash) external view returns (address) {\n        var theDeedAddr = this.deedAddr(_hash);\n        if (theDeedAddr == 0x0) {\n            return 0x0;\n        }\n\n        var deed = Deed(theDeedAddr);\n\n        return deed.owner();\n    }\n\n    function deedPreviousOwner(bytes32 _hash) external view returns (address) {\n        var theDeedAddr = this.deedAddr(_hash);\n        if (theDeedAddr == 0x0) {\n            return 0x0;\n        }\n\n        var deed = Deed(theDeedAddr);\n\n        return deed.previousOwner();\n    }\n\n    function offer(bytes32 _hash, uint256 _price, uint256 _expireAt) external {\n        var theDeedAddr = this.deedAddr(_hash);\n        var deed = Deed(theDeedAddr);\n\n        require((theDeedAddr != 0x0) && (deed.previousOwner() == msg.sender) && (deed.owner() == address(this)));\n        require((_expireAt > MIN_LISTING_TIME) && (_expireAt > block.timestamp) && (_expireAt >= (block.timestamp + MIN_LISTING_TIME)));\n\n        // the deed owner is the msg.sender\n        // node should not be 0 or already offered\n        // nodeOwner not 0\n        // block.timestamp <= _expireAt\n\n        offerings[_hash] = Offering(msg.sender, _price, _expireAt);\n\n        emit Offered(_hash, msg.sender, _price, _expireAt);\n    }\n\n    function cancelOffer(bytes32 _hash) external {\n        // https://ethereum.stackexchange.com/questions/28972/who-is-msg-sender-when-calling-a-contract-from-a-contract\n        // transfer back the domain to the owner\n        var theDeedAddr = this.deedAddr(_hash);\n        var deed = Deed(theDeedAddr);\n        require((theDeedAddr != 0x0) && (deed.previousOwner() == msg.sender) && (deed.owner() == address(this)));\n\n        delete offerings[_hash];\n\n        emit Canceled(_hash);\n    }\n\n    function cancelOfferAndWithdraw(bytes32 _hash) external {\n        // transfer back the domain to the owner\n        var theDeedAddr = this.deedAddr(_hash);\n        var deed = Deed(theDeedAddr);\n        require((theDeedAddr != 0x0) && (deed.previousOwner() == msg.sender) && (deed.owner() == address(this)));\n\n        if (offerings[_hash].nodeOwner != 0x0)\n        {\n            delete offerings[_hash];\n\n            emit Canceled(_hash);\n        }\n\n        registrar.transfer(_hash, msg.sender);\n\n        emit DomainWithdrawn(_hash, msg.sender);\n    }\n\n    function buy(bytes32 _hash) external payable {\n        require(isOffered(_hash) && (msg.value >= offerings[_hash].price));\n\n        var theDeedAddr = this.deedAddr(_hash);\n        var deed = Deed(theDeedAddr);\n        require((theDeedAddr != 0x0) && (deed.owner() == address(this)) && (deed.previousOwner() == offerings[_hash].nodeOwner));\n\n        // https://ethereum.stackexchange.com/questions/19341/address-send-vs-address-transfer-best-practice-usage\n        // https://solidity.readthedocs.io/en/develop/units-and-global-variables.html?highlight=transfer#address-related\n        offerings[_hash].nodeOwner.transfer(msg.value);\n\n        registrar.transfer(_hash, msg.sender);\n\n        delete offerings[_hash];\n\n        emit Bought(_hash, msg.sender, msg.value);\n    }\n}\n",
  "sourcePath": "/Users/vietlq/projects/ens-namex/contracts/DirectListing.sol",
  "compiler": {
    "name": "solc",
    "version": "0.4.24+commit.e67f0147.Emscripten.clang"
  },
  "schemaVersion": "2.0.1",
  "updatedAt": "2018-08-20T08:56:49.216Z"
}