{
  "contractName": "DirectListing",
  "abi": [
    {
      "constant": true,
      "inputs": [
        {
          "name": "",
          "type": "bytes32"
        }
      ],
      "name": "offerings",
      "outputs": [
        {
          "name": "nodeOwner",
          "type": "address"
        },
        {
          "name": "price",
          "type": "uint256"
        },
        {
          "name": "expireAt",
          "type": "uint256"
        }
      ],
      "payable": false,
      "stateMutability": "view",
      "type": "function"
    },
    {
      "inputs": [
        {
          "name": "_registrar",
          "type": "address"
        }
      ],
      "payable": false,
      "stateMutability": "nonpayable",
      "type": "constructor"
    },
    {
      "anonymous": false,
      "inputs": [
        {
          "indexed": true,
          "name": "node",
          "type": "bytes32"
        },
        {
          "indexed": true,
          "name": "owner",
          "type": "address"
        },
        {
          "indexed": false,
          "name": "price",
          "type": "uint256"
        },
        {
          "indexed": false,
          "name": "expireAt",
          "type": "uint256"
        }
      ],
      "name": "Offered",
      "type": "event"
    },
    {
      "anonymous": false,
      "inputs": [
        {
          "indexed": true,
          "name": "node",
          "type": "bytes32"
        },
        {
          "indexed": true,
          "name": "newOwner",
          "type": "address"
        },
        {
          "indexed": false,
          "name": "price",
          "type": "uint256"
        }
      ],
      "name": "Bought",
      "type": "event"
    },
    {
      "anonymous": false,
      "inputs": [
        {
          "indexed": true,
          "name": "node",
          "type": "bytes32"
        }
      ],
      "name": "Canceled",
      "type": "event"
    },
    {
      "anonymous": false,
      "inputs": [
        {
          "indexed": true,
          "name": "node",
          "type": "bytes32"
        },
        {
          "indexed": true,
          "name": "owner",
          "type": "address"
        }
      ],
      "name": "DomainWithdrawn",
      "type": "event"
    },
    {
      "constant": true,
      "inputs": [
        {
          "name": "_hash",
          "type": "bytes32"
        }
      ],
      "name": "deedAddr",
      "outputs": [
        {
          "name": "",
          "type": "address"
        }
      ],
      "payable": false,
      "stateMutability": "view",
      "type": "function"
    },
    {
      "constant": true,
      "inputs": [
        {
          "name": "_hash",
          "type": "bytes32"
        }
      ],
      "name": "listingMode",
      "outputs": [
        {
          "name": "",
          "type": "uint8"
        }
      ],
      "payable": false,
      "stateMutability": "view",
      "type": "function"
    },
    {
      "constant": true,
      "inputs": [
        {
          "name": "_hash",
          "type": "bytes32"
        }
      ],
      "name": "isOffered",
      "outputs": [
        {
          "name": "",
          "type": "bool"
        }
      ],
      "payable": false,
      "stateMutability": "view",
      "type": "function"
    },
    {
      "constant": true,
      "inputs": [
        {
          "name": "_hash",
          "type": "bytes32"
        }
      ],
      "name": "deedOwner",
      "outputs": [
        {
          "name": "",
          "type": "address"
        }
      ],
      "payable": false,
      "stateMutability": "view",
      "type": "function"
    },
    {
      "constant": true,
      "inputs": [
        {
          "name": "_hash",
          "type": "bytes32"
        }
      ],
      "name": "deedPreviousOwner",
      "outputs": [
        {
          "name": "",
          "type": "address"
        }
      ],
      "payable": false,
      "stateMutability": "view",
      "type": "function"
    },
    {
      "constant": false,
      "inputs": [
        {
          "name": "_hash",
          "type": "bytes32"
        },
        {
          "name": "_price",
          "type": "uint256"
        },
        {
          "name": "_expireAt",
          "type": "uint256"
        }
      ],
      "name": "offer",
      "outputs": [],
      "payable": false,
      "stateMutability": "nonpayable",
      "type": "function"
    },
    {
      "constant": false,
      "inputs": [
        {
          "name": "_hash",
          "type": "bytes32"
        }
      ],
      "name": "cancelOffer",
      "outputs": [],
      "payable": false,
      "stateMutability": "nonpayable",
      "type": "function"
    },
    {
      "constant": false,
      "inputs": [
        {
          "name": "_hash",
          "type": "bytes32"
        }
      ],
      "name": "cancelOfferAndWithdraw",
      "outputs": [],
      "payable": false,
      "stateMutability": "nonpayable",
      "type": "function"
    },
    {
      "constant": false,
      "inputs": [
        {
          "name": "_hash",
          "type": "bytes32"
        }
      ],
      "name": "buy",
      "outputs": [],
      "payable": true,
      "stateMutability": "payable",
      "type": "function"
    }
  ],
  "bytecode": "0x608060405234801561001057600080fd5b506040516020806111c48339810160405251600160a060020a038116151561003757600080fd5b60018054600160a060020a031916600160a060020a039290921691909117905561115e806100666000396000f30060806040526004361061008a5763ffffffff60e060020a6000350416632b8bf434811461008f5780633628f6f8146100bb57806349819672146100ef5780636eb971971461010f57806395f575071461014f5780639c9a106114610167578063a8df507514610172578063b8ebdb461461018a578063f0856397146101a2578063f952279e146101de575b600080fd5b34801561009b57600080fd5b506100a76004356101f6565b604080519115158252519081900360200190f35b3480156100c757600080fd5b506100d3600435610234565b60408051600160a060020a039092168252519081900360200190f35b3480156100fb57600080fd5b5061010d60043560243560443561033c565b005b34801561011b57600080fd5b506101276004356105a4565b60408051600160a060020a039094168452602084019290925282820152519081900360600190f35b34801561015b57600080fd5b506100d36004356105d0565b61010d600435610671565b34801561017e57600080fd5b506100d360043561099f565b34801561019657600080fd5b5061010d600435610a71565b3480156101ae57600080fd5b506101ba600435610d3f565b604051808260068111156101ca57fe5b60ff16815260200191505060405180910390f35b3480156101ea57600080fd5b5061010d600435610f33565b600081815260026020526040812054600160a060020a03161580159061022e5750600082815260026020819052604090912001544211155b92915050565b6040805160e060020a6395f575070281526004810183905290516000918291829130916395f575079160248082019260209290919082900301818787803b15801561027e57600080fd5b505af1158015610292573d6000803e3d6000fd5b505050506040513d60208110156102a857600080fd5b50519150600160a060020a03821615156102c55760009250610335565b81905080600160a060020a0316638da5cb5b6040518163ffffffff1660e060020a028152600401602060405180830381600087803b15801561030657600080fd5b505af115801561031a573d6000803e3d6000fd5b505050506040513d602081101561033057600080fd5b505192505b5050919050565b6040805160e060020a6395f57507028152600481018590529051600091829130916395f5750791602480830192602092919082900301818787803b15801561038357600080fd5b505af1158015610397573d6000803e3d6000fd5b505050506040513d60208110156103ad57600080fd5b50519150819050600160a060020a03811615801590610446575033600160a060020a031681600160a060020a031663674f220f6040518163ffffffff1660e060020a028152600401602060405180830381600087803b15801561040f57600080fd5b505af1158015610423573d6000803e3d6000fd5b505050506040513d602081101561043957600080fd5b5051600160a060020a0316145b80156104cc575030600160a060020a031681600160a060020a0316638da5cb5b6040518163ffffffff1660e060020a028152600401602060405180830381600087803b15801561049557600080fd5b505af11580156104a9573d6000803e3d6000fd5b505050506040513d60208110156104bf57600080fd5b5051600160a060020a0316145b15156104d757600080fd5b6064831180156104e657504283115b80156104f55750606442018310155b151561050057600080fd5b6040805160608101825233808252602080830188815283850188815260008b81526002808552908790209551865473ffffffffffffffffffffffffffffffffffffffff1916600160a060020a03909116178655915160018601555193019290925582518781529182018690528251909288927f76f83495fb03eff03b586f20387c72e9809f7ec1a27fc1b8a9a87c79b482982d929081900390910190a35050505050565b6002602081905260009182526040909120805460018201549190920154600160a060020a039092169183565b600154604080517f267b69220000000000000000000000000000000000000000000000000000000081526004810184905290516000928392600160a060020a039091169163267b69229160248082019260a09290919082900301818787803b15801561063b57600080fd5b505af115801561064f573d6000803e3d6000fd5b505050506040513d60a081101561066557600080fd5b50602001519392505050565b60008061067d836101f6565b801561069a57506000838152600260205260409020600101543410155b15156106a557600080fd5b6040805160e060020a6395f5750702815260048101859052905130916395f575079160248083019260209291908290030181600087803b1580156106e857600080fd5b505af11580156106fc573d6000803e3d6000fd5b505050506040513d602081101561071257600080fd5b50519150819050600160a060020a038116158015906107ab575030600160a060020a031681600160a060020a0316638da5cb5b6040518163ffffffff1660e060020a028152600401602060405180830381600087803b15801561077457600080fd5b505af1158015610788573d6000803e3d6000fd5b505050506040513d602081101561079e57600080fd5b5051600160a060020a0316145b8015610858575060008381526002602090815260408083205481517f674f220f0000000000000000000000000000000000000000000000000000000081529151600160a060020a03918216949186169363674f220f93600480820194929392918390030190829087803b15801561082157600080fd5b505af1158015610835573d6000803e3d6000fd5b505050506040513d602081101561084b57600080fd5b5051600160a060020a0316145b151561086357600080fd5b600083815260026020526040808220549051600160a060020a03909116913480156108fc02929091818181858888f193505050501580156108a8573d6000803e3d6000fd5b50600154604080517f79ce9fac000000000000000000000000000000000000000000000000000000008152600481018690523360248201529051600160a060020a03909216916379ce9fac9160448082019260009290919082900301818387803b15801561091557600080fd5b505af1158015610929573d6000803e3d6000fd5b5050506000848152600260208181526040808420805473ffffffffffffffffffffffffffffffffffffffff1916815560018101859055909201929092558051348152905133935086927fffa101c6ca2880d2c4f3240ea96a0cdbac504f2ee13706c9cf67c1b27219df94928290030190a3505050565b6040805160e060020a6395f575070281526004810183905290516000918291829130916395f575079160248082019260209290919082900301818787803b1580156109e957600080fd5b505af11580156109fd573d6000803e3d6000fd5b505050506040513d6020811015610a1357600080fd5b50519150600160a060020a0382161515610a305760009250610335565b81905080600160a060020a031663674f220f6040518163ffffffff1660e060020a028152600401602060405180830381600087803b15801561030657600080fd5b6040805160e060020a6395f57507028152600481018390529051600091829130916395f5750791602480830192602092919082900301818787803b158015610ab857600080fd5b505af1158015610acc573d6000803e3d6000fd5b505050506040513d6020811015610ae257600080fd5b50519150819050600160a060020a03811615801590610b7b575033600160a060020a031681600160a060020a031663674f220f6040518163ffffffff1660e060020a028152600401602060405180830381600087803b158015610b4457600080fd5b505af1158015610b58573d6000803e3d6000fd5b505050506040513d6020811015610b6e57600080fd5b5051600160a060020a0316145b8015610c01575030600160a060020a031681600160a060020a0316638da5cb5b6040518163ffffffff1660e060020a028152600401602060405180830381600087803b158015610bca57600080fd5b505af1158015610bde573d6000803e3d6000fd5b505050506040513d6020811015610bf457600080fd5b5051600160a060020a0316145b1515610c0c57600080fd5b600083815260026020526040902054600160a060020a031615610c89576000838152600260208190526040808320805473ffffffffffffffffffffffffffffffffffffffff19168155600181018490559091018290555184917f134fdd648feeaf30251f0157f9624ef8608ff9a042aad6d13e73f35d21d3f88d91a25b600154604080517f79ce9fac000000000000000000000000000000000000000000000000000000008152600481018690523360248201529051600160a060020a03909216916379ce9fac9160448082019260009290919082900301818387803b158015610cf557600080fd5b505af1158015610d09573d6000803e3d6000fd5b50506040513392508591507f2fc1d00f5f850aa7dcd8e002722a487c630210ca9ebda27b4bb2071de3e103a890600090a3505050565b6040805160e060020a6395f575070281526004810183905290516000918291829130916395f575079160248082019260209290919082900301818787803b158015610d8957600080fd5b505af1158015610d9d573d6000803e3d6000fd5b505050506040513d6020811015610db357600080fd5b50519150600160a060020a0382161515610dd05760019250610335565b81905080600160a060020a0316638da5cb5b6040518163ffffffff1660e060020a028152600401602060405180830381600087803b158015610e1157600080fd5b505af1158015610e25573d6000803e3d6000fd5b505050506040513d6020811015610e3b57600080fd5b5051600160a060020a03161515610e555760029250610335565b30600160a060020a031681600160a060020a0316638da5cb5b6040518163ffffffff1660e060020a028152600401602060405180830381600087803b158015610e9d57600080fd5b505af1158015610eb1573d6000803e3d6000fd5b505050506040513d6020811015610ec757600080fd5b5051600160a060020a031614610ee05760039250610335565b600084815260026020526040902054600160a060020a03161515610f075760049250610335565b60008481526002602081905260409091200154421115610f2a5760059250610335565b60069250610335565b6040805160e060020a6395f57507028152600481018390529051600091829130916395f5750791602480830192602092919082900301818787803b158015610f7a57600080fd5b505af1158015610f8e573d6000803e3d6000fd5b505050506040513d6020811015610fa457600080fd5b50519150819050600160a060020a0381161580159061103d575033600160a060020a031681600160a060020a031663674f220f6040518163ffffffff1660e060020a028152600401602060405180830381600087803b15801561100657600080fd5b505af115801561101a573d6000803e3d6000fd5b505050506040513d602081101561103057600080fd5b5051600160a060020a0316145b80156110c3575030600160a060020a031681600160a060020a0316638da5cb5b6040518163ffffffff1660e060020a028152600401602060405180830381600087803b15801561108c57600080fd5b505af11580156110a0573d6000803e3d6000fd5b505050506040513d60208110156110b657600080fd5b5051600160a060020a0316145b15156110ce57600080fd5b6000838152600260208190526040808320805473ffffffffffffffffffffffffffffffffffffffff19168155600181018490559091018290555184917f134fdd648feeaf30251f0157f9624ef8608ff9a042aad6d13e73f35d21d3f88d91a25050505600a165627a7a723058205c5c4f614161affa8d6a73c29978427115656af06b76eaec8a52991ed67647d50029",
  "source": "pragma solidity 0.4.24;\n\nimport \"@ensdomains/ens/contracts/ENSRegistry.sol\";\nimport \"@ensdomains/ens/contracts/ENS.sol\";\nimport \"@ensdomains/ens/contracts/Deed.sol\";\nimport \"./ens/TestRegistrarSimplified.sol\";\n\ncontract DirectListing {\n    event Offered(bytes32 indexed node, address indexed owner, uint256 price, uint256 expireAt);\n    event Bought(bytes32 indexed node, address indexed newOwner, uint256 price);\n    event Canceled(bytes32 indexed node);\n    event DomainWithdrawn(bytes32 indexed node, address indexed owner);\n\n    ENS ens;\n    Registrar registrar;\n\n    enum ListingMode { Invalid, DoesNotExist, ForeverLost, HeldByOwner, HeldInEscrow, ListedButExpired, ListedAndValid }\n\n    struct Offering {\n        address nodeOwner;\n        uint256 price;\n        uint256 expireAt;\n    }\n\n    // Minimum listing time in seconds\n    uint constant MIN_LISTING_TIME = 100;\n\n    mapping (bytes32 => Offering) public offerings;\n\n    constructor(address _registrar) public {\n        require(_registrar != 0);\n        registrar = Registrar(_registrar);\n    }\n\n    function deedAddr(bytes32 _hash) public view returns (address) {\n        var (,theDeedAddr,,,) = registrar.entries(_hash);\n        return theDeedAddr;\n    }\n\n    function listingMode(bytes32 _hash) public view returns (ListingMode) {\n        var theDeedAddr = this.deedAddr(_hash);\n\n        if (theDeedAddr == 0x0) {\n            return ListingMode.DoesNotExist;\n        }\n\n        var deed = Deed(theDeedAddr);\n\n        if (deed.owner() == 0x0) {\n            return ListingMode.ForeverLost;\n        }\n\n        if (deed.owner() != address(this)) {\n            return ListingMode.HeldByOwner;\n        }\n\n        if (offerings[_hash].nodeOwner == 0x0) {\n            return ListingMode.HeldInEscrow;\n        }\n\n        if (offerings[_hash].expireAt < block.timestamp) {\n            return ListingMode.ListedButExpired;\n        } else {\n            return ListingMode.ListedAndValid;\n        }\n\n        // We will never get here, keeping extra value\n        return ListingMode.Invalid;\n    }\n\n    // https://ethereum.stackexchange.com/questions/7853/is-the-block-timestamp-value-in-solidity-seconds-or-milliseconds\n    function isOffered(bytes32 _hash) public view returns (bool) {\n        return ((offerings[_hash].nodeOwner != 0x0) && (offerings[_hash].expireAt >= block.timestamp));\n    }\n\n    function deedOwner(bytes32 _hash) external view returns (address) {\n        var theDeedAddr = this.deedAddr(_hash);\n        if (theDeedAddr == 0x0) {\n            return 0x0;\n        }\n\n        var deed = Deed(theDeedAddr);\n\n        return deed.owner();\n    }\n\n    function deedPreviousOwner(bytes32 _hash) external view returns (address) {\n        var theDeedAddr = this.deedAddr(_hash);\n        if (theDeedAddr == 0x0) {\n            return 0x0;\n        }\n\n        var deed = Deed(theDeedAddr);\n\n        return deed.previousOwner();\n    }\n\n    function offer(bytes32 _hash, uint256 _price, uint256 _expireAt) external {\n        var theDeedAddr = this.deedAddr(_hash);\n        var deed = Deed(theDeedAddr);\n\n        require((theDeedAddr != 0x0) && (deed.previousOwner() == msg.sender) && (deed.owner() == address(this)));\n        require((_expireAt > MIN_LISTING_TIME) && (_expireAt > block.timestamp) && (_expireAt >= (block.timestamp + MIN_LISTING_TIME)));\n\n        // the deed owner is the msg.sender\n        // node should not be 0 or already offered\n        // nodeOwner not 0\n        // block.timestamp <= _expireAt\n\n        offerings[_hash] = Offering(msg.sender, _price, _expireAt);\n\n        emit Offered(_hash, msg.sender, _price, _expireAt);\n    }\n\n    function cancelOffer(bytes32 _hash) external {\n        // https://ethereum.stackexchange.com/questions/28972/who-is-msg-sender-when-calling-a-contract-from-a-contract\n        // transfer back the domain to the owner\n        var theDeedAddr = this.deedAddr(_hash);\n        var deed = Deed(theDeedAddr);\n        require((theDeedAddr != 0x0) && (deed.previousOwner() == msg.sender) && (deed.owner() == address(this)));\n\n        delete offerings[_hash];\n\n        emit Canceled(_hash);\n    }\n\n    function cancelOfferAndWithdraw(bytes32 _hash) external {\n        // transfer back the domain to the owner\n        var theDeedAddr = this.deedAddr(_hash);\n        var deed = Deed(theDeedAddr);\n        require((theDeedAddr != 0x0) && (deed.previousOwner() == msg.sender) && (deed.owner() == address(this)));\n\n        if (offerings[_hash].nodeOwner != 0x0)\n        {\n            delete offerings[_hash];\n\n            emit Canceled(_hash);\n        }\n\n        registrar.transfer(_hash, msg.sender);\n\n        emit DomainWithdrawn(_hash, msg.sender);\n    }\n\n    function buy(bytes32 _hash) external payable {\n        require(isOffered(_hash) && (msg.value >= offerings[_hash].price));\n\n        var theDeedAddr = this.deedAddr(_hash);\n        var deed = Deed(theDeedAddr);\n        require((theDeedAddr != 0x0) && (deed.owner() == address(this)) && (deed.previousOwner() == offerings[_hash].nodeOwner));\n\n        // https://ethereum.stackexchange.com/questions/19341/address-send-vs-address-transfer-best-practice-usage\n        // https://solidity.readthedocs.io/en/develop/units-and-global-variables.html?highlight=transfer#address-related\n        offerings[_hash].nodeOwner.transfer(msg.value);\n\n        registrar.transfer(_hash, msg.sender);\n\n        delete offerings[_hash];\n\n        emit Bought(_hash, msg.sender, msg.value);\n    }\n}\n",
  "sourcePath": "/Users/vietlq/projects/ens-namex/contracts/DirectListing.sol",
  "compiler": {
    "name": "solc",
    "version": "0.4.24+commit.e67f0147.Emscripten.clang"
  },
  "schemaVersion": "2.0.1",
  "updatedAt": "2018-08-20T09:21:45.635Z"
}