{
  "contractName": "DirectListing",
  "abi": [
    {
      "constant": true,
      "inputs": [
        {
          "name": "",
          "type": "bytes32"
        }
      ],
      "name": "offerings",
      "outputs": [
        {
          "name": "nodeOwner",
          "type": "address"
        },
        {
          "name": "price",
          "type": "uint256"
        },
        {
          "name": "expireAt",
          "type": "uint256"
        }
      ],
      "payable": false,
      "stateMutability": "view",
      "type": "function"
    },
    {
      "constant": true,
      "inputs": [],
      "name": "launchLength",
      "outputs": [
        {
          "name": "",
          "type": "uint32"
        }
      ],
      "payable": false,
      "stateMutability": "view",
      "type": "function"
    },
    {
      "inputs": [
        {
          "name": "_registrar",
          "type": "address"
        }
      ],
      "payable": false,
      "stateMutability": "nonpayable",
      "type": "constructor"
    },
    {
      "anonymous": false,
      "inputs": [
        {
          "indexed": true,
          "name": "node",
          "type": "bytes32"
        },
        {
          "indexed": true,
          "name": "owner",
          "type": "address"
        },
        {
          "indexed": false,
          "name": "price",
          "type": "uint256"
        },
        {
          "indexed": false,
          "name": "expireAt",
          "type": "uint256"
        }
      ],
      "name": "Offered",
      "type": "event"
    },
    {
      "anonymous": false,
      "inputs": [
        {
          "indexed": true,
          "name": "node",
          "type": "bytes32"
        },
        {
          "indexed": true,
          "name": "newOwner",
          "type": "address"
        },
        {
          "indexed": false,
          "name": "price",
          "type": "uint256"
        }
      ],
      "name": "Bought",
      "type": "event"
    },
    {
      "anonymous": false,
      "inputs": [
        {
          "indexed": true,
          "name": "node",
          "type": "bytes32"
        }
      ],
      "name": "Canceled",
      "type": "event"
    },
    {
      "anonymous": false,
      "inputs": [
        {
          "indexed": true,
          "name": "node",
          "type": "bytes32"
        },
        {
          "indexed": true,
          "name": "owner",
          "type": "address"
        }
      ],
      "name": "DomainWithdrawn",
      "type": "event"
    },
    {
      "constant": true,
      "inputs": [
        {
          "name": "_hash",
          "type": "bytes32"
        }
      ],
      "name": "isOffered",
      "outputs": [
        {
          "name": "",
          "type": "bool"
        }
      ],
      "payable": false,
      "stateMutability": "view",
      "type": "function"
    },
    {
      "constant": false,
      "inputs": [
        {
          "name": "_hash",
          "type": "bytes32"
        },
        {
          "name": "_price",
          "type": "uint256"
        },
        {
          "name": "_expireAt",
          "type": "uint256"
        }
      ],
      "name": "offer",
      "outputs": [],
      "payable": false,
      "stateMutability": "nonpayable",
      "type": "function"
    },
    {
      "constant": false,
      "inputs": [
        {
          "name": "_hash",
          "type": "bytes32"
        }
      ],
      "name": "cancelOffer",
      "outputs": [],
      "payable": false,
      "stateMutability": "nonpayable",
      "type": "function"
    },
    {
      "constant": false,
      "inputs": [
        {
          "name": "_hash",
          "type": "bytes32"
        }
      ],
      "name": "cancelOfferAndWithdraw",
      "outputs": [],
      "payable": false,
      "stateMutability": "nonpayable",
      "type": "function"
    },
    {
      "constant": false,
      "inputs": [
        {
          "name": "_hash",
          "type": "bytes32"
        }
      ],
      "name": "buy",
      "outputs": [],
      "payable": true,
      "stateMutability": "payable",
      "type": "function"
    }
  ],
  "bytecode": "0x608060405234801561001057600080fd5b50604051602080610a05833981016040525160018054600160a060020a031916600160a060020a039092169190911790556109b5806100506000396000f3006080604052600436106100695763ffffffff60e060020a6000350416632b8bf434811461006e578063498196721461009a5780636eb97197146100ba5780639c9a1061146100fa578063ae1a0b0c14610105578063b8ebdb4614610133578063f952279e1461014b575b600080fd5b34801561007a57600080fd5b50610086600435610163565b604080519115158252519081900360200190f35b3480156100a657600080fd5b506100b86004356024356044356101a1565b005b3480156100c657600080fd5b506100d2600435610407565b60408051600160a060020a039094168452602084019290925282820152519081900360600190f35b6100b8600435610433565b34801561011157600080fd5b5061011a610467565b6040805163ffffffff9092168252519081900360200190f35b34801561013f57600080fd5b506100b860043561046e565b34801561015757600080fd5b506100b8600435610763565b600081815260026020526040812054600160a060020a03161580159061019b5750600082815260026020819052604090912001544211155b92915050565b600154604080517f267b69220000000000000000000000000000000000000000000000000000000081526004810186905290516000928392600160a060020a039091169163267b69229160248082019260a09290919082900301818787803b15801561020c57600080fd5b505af1158015610220573d6000803e3d6000fd5b505050506040513d60a081101561023657600080fd5b50602001519150819050600160a060020a038116158015906102d2575033600160a060020a031681600160a060020a031663674f220f6040518163ffffffff1660e060020a028152600401602060405180830381600087803b15801561029b57600080fd5b505af11580156102af573d6000803e3d6000fd5b505050506040513d60208110156102c557600080fd5b5051600160a060020a0316145b8015610358575030600160a060020a031681600160a060020a0316638da5cb5b6040518163ffffffff1660e060020a028152600401602060405180830381600087803b15801561032157600080fd5b505af1158015610335573d6000803e3d6000fd5b505050506040513d602081101561034b57600080fd5b5051600160a060020a0316145b151561036357600080fd5b6040805160608101825233808252602080830188815283850188815260008b81526002808552908790209551865473ffffffffffffffffffffffffffffffffffffffff1916600160a060020a03909116178655915160018601555193019290925582518781529182018690528251909288927f76f83495fb03eff03b586f20387c72e9809f7ec1a27fc1b8a9a87c79b482982d929081900390910190a35050505050565b6002602081905260009182526040909120805460018201549190920154600160a060020a039092169183565b61043c81610163565b801561045957506000818152600260205260409020600101543410155b151561046457600080fd5b50565b6249d40081565b600154604080517f267b69220000000000000000000000000000000000000000000000000000000081526004810184905290516000928392600160a060020a039091169163267b69229160248082019260a09290919082900301818787803b1580156104d957600080fd5b505af11580156104ed573d6000803e3d6000fd5b505050506040513d60a081101561050357600080fd5b50602001519150819050600160a060020a0381161580159061059f575033600160a060020a031681600160a060020a031663674f220f6040518163ffffffff1660e060020a028152600401602060405180830381600087803b15801561056857600080fd5b505af115801561057c573d6000803e3d6000fd5b505050506040513d602081101561059257600080fd5b5051600160a060020a0316145b8015610625575030600160a060020a031681600160a060020a0316638da5cb5b6040518163ffffffff1660e060020a028152600401602060405180830381600087803b1580156105ee57600080fd5b505af1158015610602573d6000803e3d6000fd5b505050506040513d602081101561061857600080fd5b5051600160a060020a0316145b151561063057600080fd5b600083815260026020526040902054600160a060020a0316156106ad576000838152600260208190526040808320805473ffffffffffffffffffffffffffffffffffffffff19168155600181018490559091018290555184917f134fdd648feeaf30251f0157f9624ef8608ff9a042aad6d13e73f35d21d3f88d91a25b600154604080517f79ce9fac000000000000000000000000000000000000000000000000000000008152600481018690523360248201529051600160a060020a03909216916379ce9fac9160448082019260009290919082900301818387803b15801561071957600080fd5b505af115801561072d573d6000803e3d6000fd5b50506040513392508591507f2fc1d00f5f850aa7dcd8e002722a487c630210ca9ebda27b4bb2071de3e103a890600090a3505050565b600154604080517f267b69220000000000000000000000000000000000000000000000000000000081526004810184905290516000928392600160a060020a039091169163267b69229160248082019260a09290919082900301818787803b1580156107ce57600080fd5b505af11580156107e2573d6000803e3d6000fd5b505050506040513d60a08110156107f857600080fd5b50602001519150819050600160a060020a03811615801590610894575033600160a060020a031681600160a060020a031663674f220f6040518163ffffffff1660e060020a028152600401602060405180830381600087803b15801561085d57600080fd5b505af1158015610871573d6000803e3d6000fd5b505050506040513d602081101561088757600080fd5b5051600160a060020a0316145b801561091a575030600160a060020a031681600160a060020a0316638da5cb5b6040518163ffffffff1660e060020a028152600401602060405180830381600087803b1580156108e357600080fd5b505af11580156108f7573d6000803e3d6000fd5b505050506040513d602081101561090d57600080fd5b5051600160a060020a0316145b151561092557600080fd5b6000838152600260208190526040808320805473ffffffffffffffffffffffffffffffffffffffff19168155600181018490559091018290555184917f134fdd648feeaf30251f0157f9624ef8608ff9a042aad6d13e73f35d21d3f88d91a25050505600a165627a7a72305820189566f8c138ecbf456d2db2ebd964a7b8b2ab8b3607388aa4a93036189e21810029",
  "source": "pragma solidity 0.4.24;\n\nimport \"@ensdomains/ens/contracts/ENSRegistry.sol\";\nimport \"@ensdomains/ens/contracts/ENS.sol\";\nimport \"@ensdomains/ens/contracts/Deed.sol\";\nimport \"./ens/TestRegistrarSimplified.sol\";\n\ncontract DirectListing {\n    event Offered(bytes32 indexed node, address indexed owner, uint256 price, uint256 expireAt);\n    event Bought(bytes32 indexed node, address indexed newOwner, uint256 price);\n    event Canceled(bytes32 indexed node);\n    event DomainWithdrawn(bytes32 indexed node, address indexed owner);\n\n    ENS ens;\n    Registrar registrar;\n\n    uint32 constant totalListingLength = 5 days;\n    uint32 constant revealPeriod = 48 hours;\n    uint32 public constant launchLength = 8 weeks;\n\n    struct Offering {\n        address nodeOwner;\n        uint256 price;\n        uint256 expireAt;\n    }\n\n    mapping (bytes32 => Offering) public offerings;\n\n    constructor(address _registrar) public {\n        registrar = Registrar(_registrar);\n    }\n\n    // https://ethereum.stackexchange.com/questions/7853/is-the-block-timestamp-value-in-solidity-seconds-or-milliseconds\n    function isOffered(bytes32 _hash) public view returns (bool) {\n        return (offerings[_hash].nodeOwner != 0x0 && offerings[_hash].expireAt >= block.timestamp);\n    }\n\n    function offer(bytes32 _hash, uint256 _price, uint256 _expireAt) external {\n        var (,deedAddr,,,) = registrar.entries(_hash);\n        var deed = Deed(deedAddr);\n\n        require(deedAddr != 0x0 && deed.previousOwner() == msg.sender && deed.owner() == address(this));\n\n        // the deed owner is the msg.sender\n        // node should not be 0 or already offered\n        // nodeOwner not 0\n        // block.timestamp <= _expireAt\n\n        offerings[_hash] = Offering(msg.sender, _price, _expireAt);\n\n        emit Offered(_hash, msg.sender, _price, _expireAt);\n    }\n\n    function cancelOffer(bytes32 _hash) external {\n        // transfer back the domain to the owner\n        var (,deedAddr,,,) = registrar.entries(_hash);\n        var deed = Deed(deedAddr);\n\n        // https://ethereum.stackexchange.com/questions/28972/who-is-msg-sender-when-calling-a-contract-from-a-contract\n        require(deedAddr != 0x0 && deed.previousOwner() == msg.sender && deed.owner() == address(this));\n\n        delete offerings[_hash];\n\n        emit Canceled(_hash);\n    }\n\n    function cancelOfferAndWithdraw(bytes32 _hash) external {\n        // transfer back the domain to the owner\n        var (,deedAddr,,,) = registrar.entries(_hash);\n        var deed = Deed(deedAddr);\n\n        require(deedAddr != 0x0 && deed.previousOwner() == msg.sender && deed.owner() == address(this));\n\n        if (offerings[_hash].nodeOwner != 0x0)\n        {\n            delete offerings[_hash];\n\n            emit Canceled(_hash);\n        }\n\n        registrar.transfer(_hash, msg.sender);\n\n        emit DomainWithdrawn(_hash, msg.sender);\n    }\n\n    function buy(bytes32 _hash) external payable {\n        require(isOffered(_hash) && msg.value >= offerings[_hash].price);\n    }\n}\n",
  "sourcePath": "/Users/sprusr/Code/ens-namex/contracts/DirectListing.sol",
  "compiler": {
    "name": "solc",
    "version": "0.4.24+commit.e67f0147.Emscripten.clang"
  },
  "schemaVersion": "2.0.1",
  "updatedAt": "2018-08-12T12:22:48.520Z"
}