{
  "contractName": "DirectListing",
  "abi": [
    {
      "constant": true,
      "inputs": [
        {
          "name": "",
          "type": "bytes32"
        }
      ],
      "name": "offerings",
      "outputs": [
        {
          "name": "nodeOwner",
          "type": "address"
        },
        {
          "name": "price",
          "type": "uint256"
        },
        {
          "name": "expireAt",
          "type": "uint256"
        }
      ],
      "payable": false,
      "stateMutability": "view",
      "type": "function"
    },
    {
      "inputs": [
        {
          "name": "_registrar",
          "type": "address"
        }
      ],
      "payable": false,
      "stateMutability": "nonpayable",
      "type": "constructor"
    },
    {
      "anonymous": false,
      "inputs": [
        {
          "indexed": true,
          "name": "node",
          "type": "bytes32"
        },
        {
          "indexed": true,
          "name": "owner",
          "type": "address"
        },
        {
          "indexed": false,
          "name": "price",
          "type": "uint256"
        },
        {
          "indexed": false,
          "name": "expireAt",
          "type": "uint256"
        }
      ],
      "name": "Offered",
      "type": "event"
    },
    {
      "anonymous": false,
      "inputs": [
        {
          "indexed": true,
          "name": "node",
          "type": "bytes32"
        },
        {
          "indexed": true,
          "name": "newOwner",
          "type": "address"
        },
        {
          "indexed": false,
          "name": "price",
          "type": "uint256"
        }
      ],
      "name": "Bought",
      "type": "event"
    },
    {
      "anonymous": false,
      "inputs": [
        {
          "indexed": true,
          "name": "node",
          "type": "bytes32"
        }
      ],
      "name": "Canceled",
      "type": "event"
    },
    {
      "anonymous": false,
      "inputs": [
        {
          "indexed": true,
          "name": "node",
          "type": "bytes32"
        },
        {
          "indexed": true,
          "name": "owner",
          "type": "address"
        }
      ],
      "name": "DomainWithdrawn",
      "type": "event"
    },
    {
      "constant": true,
      "inputs": [
        {
          "name": "_hash",
          "type": "bytes32"
        }
      ],
      "name": "isOffered",
      "outputs": [
        {
          "name": "",
          "type": "bool"
        }
      ],
      "payable": false,
      "stateMutability": "view",
      "type": "function"
    },
    {
      "constant": true,
      "inputs": [
        {
          "name": "_hash",
          "type": "bytes32"
        }
      ],
      "name": "deedAddr",
      "outputs": [
        {
          "name": "",
          "type": "address"
        }
      ],
      "payable": false,
      "stateMutability": "view",
      "type": "function"
    },
    {
      "constant": true,
      "inputs": [
        {
          "name": "_hash",
          "type": "bytes32"
        }
      ],
      "name": "deedOwner",
      "outputs": [
        {
          "name": "",
          "type": "address"
        }
      ],
      "payable": false,
      "stateMutability": "view",
      "type": "function"
    },
    {
      "constant": true,
      "inputs": [
        {
          "name": "_hash",
          "type": "bytes32"
        }
      ],
      "name": "deedPreviousOwner",
      "outputs": [
        {
          "name": "",
          "type": "address"
        }
      ],
      "payable": false,
      "stateMutability": "view",
      "type": "function"
    },
    {
      "constant": false,
      "inputs": [
        {
          "name": "_hash",
          "type": "bytes32"
        },
        {
          "name": "_price",
          "type": "uint256"
        },
        {
          "name": "_expireAt",
          "type": "uint256"
        }
      ],
      "name": "offer",
      "outputs": [],
      "payable": false,
      "stateMutability": "nonpayable",
      "type": "function"
    },
    {
      "constant": false,
      "inputs": [
        {
          "name": "_hash",
          "type": "bytes32"
        }
      ],
      "name": "cancelOffer",
      "outputs": [],
      "payable": false,
      "stateMutability": "nonpayable",
      "type": "function"
    },
    {
      "constant": false,
      "inputs": [
        {
          "name": "_hash",
          "type": "bytes32"
        }
      ],
      "name": "cancelOfferAndWithdraw",
      "outputs": [],
      "payable": false,
      "stateMutability": "nonpayable",
      "type": "function"
    },
    {
      "constant": false,
      "inputs": [
        {
          "name": "_hash",
          "type": "bytes32"
        }
      ],
      "name": "buy",
      "outputs": [],
      "payable": true,
      "stateMutability": "payable",
      "type": "function"
    }
  ],
  "bytecode": "0x608060405234801561001057600080fd5b50604051602080610fe38339810160405251600160a060020a038116151561003757600080fd5b60018054600160a060020a031916600160a060020a0392909216919091179055610f7d806100666000396000f30060806040526004361061007f5763ffffffff60e060020a6000350416632b8bf43481146100845780633628f6f8146100b057806349819672146100e45780636eb971971461010457806395f57507146101445780639c9a10611461015c578063a8df507514610167578063b8ebdb461461017f578063f952279e14610197575b600080fd5b34801561009057600080fd5b5061009c6004356101af565b604080519115158252519081900360200190f35b3480156100bc57600080fd5b506100c86004356101ed565b60408051600160a060020a039092168252519081900360200190f35b3480156100f057600080fd5b5061010260043560243560443561030b565b005b34801561011057600080fd5b5061011c600435610584565b60408051600160a060020a039094168452602084019290925282820152519081900360600190f35b34801561015057600080fd5b506100c86004356105b0565b61010260043561063b565b34801561017357600080fd5b506100c860043561097a565b34801561018b57600080fd5b50610102600435610a62565b3480156101a357600080fd5b50610102600435610d41565b600081815260026020526040812054600160a060020a0316158015906101e75750600082815260026020819052604090912001544211155b92915050565b604080517f95f575070000000000000000000000000000000000000000000000000000000081526004810183905290516000918291829130916395f575079160248082019260209290919082900301818787803b15801561024d57600080fd5b505af1158015610261573d6000803e3d6000fd5b505050506040513d602081101561027757600080fd5b50519150600160a060020a03821615156102945760009250610304565b81905080600160a060020a0316638da5cb5b6040518163ffffffff1660e060020a028152600401602060405180830381600087803b1580156102d557600080fd5b505af11580156102e9573d6000803e3d6000fd5b505050506040513d60208110156102ff57600080fd5b505192505b5050919050565b6001546040805160e160020a63133db4910281526004810186905290516000928392600160a060020a039091169163267b69229160248082019260a09290919082900301818787803b15801561036057600080fd5b505af1158015610374573d6000803e3d6000fd5b505050506040513d60a081101561038a57600080fd5b50602001519150819050600160a060020a03811615801590610426575033600160a060020a031681600160a060020a031663674f220f6040518163ffffffff1660e060020a028152600401602060405180830381600087803b1580156103ef57600080fd5b505af1158015610403573d6000803e3d6000fd5b505050506040513d602081101561041957600080fd5b5051600160a060020a0316145b80156104ac575030600160a060020a031681600160a060020a0316638da5cb5b6040518163ffffffff1660e060020a028152600401602060405180830381600087803b15801561047557600080fd5b505af1158015610489573d6000803e3d6000fd5b505050506040513d602081101561049f57600080fd5b5051600160a060020a0316145b15156104b757600080fd5b6064831180156104c657504283115b80156104d55750606442018310155b15156104e057600080fd5b6040805160608101825233808252602080830188815283850188815260008b81526002808552908790209551865473ffffffffffffffffffffffffffffffffffffffff1916600160a060020a03909116178655915160018601555193019290925582518781529182018690528251909288927f76f83495fb03eff03b586f20387c72e9809f7ec1a27fc1b8a9a87c79b482982d929081900390910190a35050505050565b6002602081905260009182526040909120805460018201549190920154600160a060020a039092169183565b6001546040805160e160020a63133db4910281526004810184905290516000928392600160a060020a039091169163267b69229160248082019260a09290919082900301818787803b15801561060557600080fd5b505af1158015610619573d6000803e3d6000fd5b505050506040513d60a081101561062f57600080fd5b50602001519392505050565b600080610647836101af565b801561066457506000838152600260205260409020600101543410155b151561066f57600080fd5b6001546040805160e160020a63133db491028152600481018690529051600160a060020a039092169163267b69229160248082019260a0929091908290030181600087803b1580156106c057600080fd5b505af11580156106d4573d6000803e3d6000fd5b505050506040513d60a08110156106ea57600080fd5b50602001519150819050600160a060020a03811615801590610786575030600160a060020a031681600160a060020a0316638da5cb5b6040518163ffffffff1660e060020a028152600401602060405180830381600087803b15801561074f57600080fd5b505af1158015610763573d6000803e3d6000fd5b505050506040513d602081101561077957600080fd5b5051600160a060020a0316145b8015610833575060008381526002602090815260408083205481517f674f220f0000000000000000000000000000000000000000000000000000000081529151600160a060020a03918216949186169363674f220f93600480820194929392918390030190829087803b1580156107fc57600080fd5b505af1158015610810573d6000803e3d6000fd5b505050506040513d602081101561082657600080fd5b5051600160a060020a0316145b151561083e57600080fd5b600083815260026020526040808220549051600160a060020a03909116913480156108fc02929091818181858888f19350505050158015610883573d6000803e3d6000fd5b50600154604080517f79ce9fac000000000000000000000000000000000000000000000000000000008152600481018690523360248201529051600160a060020a03909216916379ce9fac9160448082019260009290919082900301818387803b1580156108f057600080fd5b505af1158015610904573d6000803e3d6000fd5b5050506000848152600260208181526040808420805473ffffffffffffffffffffffffffffffffffffffff1916815560018101859055909201929092558051348152905133935086927fffa101c6ca2880d2c4f3240ea96a0cdbac504f2ee13706c9cf67c1b27219df94928290030190a3505050565b604080517f95f575070000000000000000000000000000000000000000000000000000000081526004810183905290516000918291829130916395f575079160248082019260209290919082900301818787803b1580156109da57600080fd5b505af11580156109ee573d6000803e3d6000fd5b505050506040513d6020811015610a0457600080fd5b50519150600160a060020a0382161515610a215760009250610304565b81905080600160a060020a031663674f220f6040518163ffffffff1660e060020a028152600401602060405180830381600087803b1580156102d557600080fd5b6001546040805160e160020a63133db4910281526004810184905290516000928392600160a060020a039091169163267b69229160248082019260a09290919082900301818787803b158015610ab757600080fd5b505af1158015610acb573d6000803e3d6000fd5b505050506040513d60a0811015610ae157600080fd5b50602001519150819050600160a060020a03811615801590610b7d575033600160a060020a031681600160a060020a031663674f220f6040518163ffffffff1660e060020a028152600401602060405180830381600087803b158015610b4657600080fd5b505af1158015610b5a573d6000803e3d6000fd5b505050506040513d6020811015610b7057600080fd5b5051600160a060020a0316145b8015610c03575030600160a060020a031681600160a060020a0316638da5cb5b6040518163ffffffff1660e060020a028152600401602060405180830381600087803b158015610bcc57600080fd5b505af1158015610be0573d6000803e3d6000fd5b505050506040513d6020811015610bf657600080fd5b5051600160a060020a0316145b1515610c0e57600080fd5b600083815260026020526040902054600160a060020a031615610c8b576000838152600260208190526040808320805473ffffffffffffffffffffffffffffffffffffffff19168155600181018490559091018290555184917f134fdd648feeaf30251f0157f9624ef8608ff9a042aad6d13e73f35d21d3f88d91a25b600154604080517f79ce9fac000000000000000000000000000000000000000000000000000000008152600481018690523360248201529051600160a060020a03909216916379ce9fac9160448082019260009290919082900301818387803b158015610cf757600080fd5b505af1158015610d0b573d6000803e3d6000fd5b50506040513392508591507f2fc1d00f5f850aa7dcd8e002722a487c630210ca9ebda27b4bb2071de3e103a890600090a3505050565b6001546040805160e160020a63133db4910281526004810184905290516000928392600160a060020a039091169163267b69229160248082019260a09290919082900301818787803b158015610d9657600080fd5b505af1158015610daa573d6000803e3d6000fd5b505050506040513d60a0811015610dc057600080fd5b50602001519150819050600160a060020a03811615801590610e5c575033600160a060020a031681600160a060020a031663674f220f6040518163ffffffff1660e060020a028152600401602060405180830381600087803b158015610e2557600080fd5b505af1158015610e39573d6000803e3d6000fd5b505050506040513d6020811015610e4f57600080fd5b5051600160a060020a0316145b8015610ee2575030600160a060020a031681600160a060020a0316638da5cb5b6040518163ffffffff1660e060020a028152600401602060405180830381600087803b158015610eab57600080fd5b505af1158015610ebf573d6000803e3d6000fd5b505050506040513d6020811015610ed557600080fd5b5051600160a060020a0316145b1515610eed57600080fd5b6000838152600260208190526040808320805473ffffffffffffffffffffffffffffffffffffffff19168155600181018490559091018290555184917f134fdd648feeaf30251f0157f9624ef8608ff9a042aad6d13e73f35d21d3f88d91a25050505600a165627a7a7230582098347d1e7b533e330b36b57a8e9de21a325f9b043317da091178c9c9b959ad4e0029",
  "source": "pragma solidity 0.4.24;\n\nimport \"@ensdomains/ens/contracts/ENSRegistry.sol\";\nimport \"@ensdomains/ens/contracts/ENS.sol\";\nimport \"@ensdomains/ens/contracts/Deed.sol\";\nimport \"./ens/TestRegistrarSimplified.sol\";\n\ncontract DirectListing {\n    event Offered(bytes32 indexed node, address indexed owner, uint256 price, uint256 expireAt);\n    event Bought(bytes32 indexed node, address indexed newOwner, uint256 price);\n    event Canceled(bytes32 indexed node);\n    event DomainWithdrawn(bytes32 indexed node, address indexed owner);\n\n    ENS ens;\n    Registrar registrar;\n\n    struct Offering {\n        address nodeOwner;\n        uint256 price;\n        uint256 expireAt;\n    }\n\n    // Minimum listing time in seconds\n    uint constant MIN_LISTING_TIME = 100;\n\n    mapping (bytes32 => Offering) public offerings;\n\n    constructor(address _registrar) public {\n        require(_registrar != 0);\n        registrar = Registrar(_registrar);\n    }\n\n    // https://ethereum.stackexchange.com/questions/7853/is-the-block-timestamp-value-in-solidity-seconds-or-milliseconds\n    function isOffered(bytes32 _hash) public view returns (bool) {\n        return ((offerings[_hash].nodeOwner != 0x0) && (offerings[_hash].expireAt >= block.timestamp));\n    }\n\n    function deedAddr(bytes32 _hash) public view returns (address) {\n        var (,theDeedAddr,,,) = registrar.entries(_hash);\n        return theDeedAddr;\n    }\n\n    function deedOwner(bytes32 _hash) public view returns (address) {\n        var theDeedAddr = this.deedAddr(_hash);\n        if (theDeedAddr == 0x0) {\n            return 0x0;\n        }\n\n        var deed = Deed(theDeedAddr);\n\n        return deed.owner();\n    }\n\n    function deedPreviousOwner(bytes32 _hash) public view returns (address) {\n        var theDeedAddr = this.deedAddr(_hash);\n        if (theDeedAddr == 0x0) {\n            return 0x0;\n        }\n\n        var deed = Deed(theDeedAddr);\n\n        return deed.previousOwner();\n    }\n\n    function offer(bytes32 _hash, uint256 _price, uint256 _expireAt) external {\n        var (,deedAddr,,,) = registrar.entries(_hash);\n        var deed = Deed(deedAddr);\n\n        require((deedAddr != 0x0) && (deed.previousOwner() == msg.sender) && (deed.owner() == address(this)));\n        require((_expireAt > MIN_LISTING_TIME) && (_expireAt > block.timestamp) && (_expireAt >= (block.timestamp + MIN_LISTING_TIME)));\n\n        // the deed owner is the msg.sender\n        // node should not be 0 or already offered\n        // nodeOwner not 0\n        // block.timestamp <= _expireAt\n\n        offerings[_hash] = Offering(msg.sender, _price, _expireAt);\n\n        emit Offered(_hash, msg.sender, _price, _expireAt);\n    }\n\n    function cancelOffer(bytes32 _hash) external {\n        // https://ethereum.stackexchange.com/questions/28972/who-is-msg-sender-when-calling-a-contract-from-a-contract\n        // transfer back the domain to the owner\n        var (,deedAddr,,,) = registrar.entries(_hash);\n        var deed = Deed(deedAddr);\n        require((deedAddr != 0x0) && (deed.previousOwner() == msg.sender) && (deed.owner() == address(this)));\n\n        delete offerings[_hash];\n\n        emit Canceled(_hash);\n    }\n\n    function cancelOfferAndWithdraw(bytes32 _hash) external {\n        // transfer back the domain to the owner\n        var (,deedAddr,,,) = registrar.entries(_hash);\n        var deed = Deed(deedAddr);\n        require((deedAddr != 0x0) && (deed.previousOwner() == msg.sender) && (deed.owner() == address(this)));\n\n        if (offerings[_hash].nodeOwner != 0x0)\n        {\n            delete offerings[_hash];\n\n            emit Canceled(_hash);\n        }\n\n        registrar.transfer(_hash, msg.sender);\n\n        emit DomainWithdrawn(_hash, msg.sender);\n    }\n\n    function buy(bytes32 _hash) external payable {\n        require(isOffered(_hash) && (msg.value >= offerings[_hash].price));\n\n        var (,deedAddr,,,) = registrar.entries(_hash);\n        var deed = Deed(deedAddr);\n        require((deedAddr != 0x0) && (deed.owner() == address(this)) && (deed.previousOwner() == offerings[_hash].nodeOwner));\n\n        // https://ethereum.stackexchange.com/questions/19341/address-send-vs-address-transfer-best-practice-usage\n        // https://solidity.readthedocs.io/en/develop/units-and-global-variables.html?highlight=transfer#address-related\n        offerings[_hash].nodeOwner.transfer(msg.value);\n\n        registrar.transfer(_hash, msg.sender);\n\n        delete offerings[_hash];\n\n        emit Bought(_hash, msg.sender, msg.value);\n    }\n}\n",
  "sourcePath": "/Users/vietlq/projects/ens-namex/contracts/DirectListing.sol",
  "compiler": {
    "name": "solc",
    "version": "0.4.24+commit.e67f0147.Emscripten.clang"
  },
  "schemaVersion": "2.0.1",
  "updatedAt": "2018-08-16T13:15:43.990Z"
}