{
  "contractName": "DirectListing",
  "abi": [
    {
      "constant": true,
      "inputs": [
        {
          "name": "",
          "type": "bytes32"
        }
      ],
      "name": "offerings",
      "outputs": [
        {
          "name": "nodeOwner",
          "type": "address"
        },
        {
          "name": "price",
          "type": "uint256"
        },
        {
          "name": "expireAt",
          "type": "uint256"
        }
      ],
      "payable": false,
      "stateMutability": "view",
      "type": "function"
    },
    {
      "inputs": [
        {
          "name": "_registrar",
          "type": "address"
        }
      ],
      "payable": false,
      "stateMutability": "nonpayable",
      "type": "constructor"
    },
    {
      "anonymous": false,
      "inputs": [
        {
          "indexed": true,
          "name": "node",
          "type": "bytes32"
        },
        {
          "indexed": true,
          "name": "owner",
          "type": "address"
        },
        {
          "indexed": false,
          "name": "price",
          "type": "uint256"
        },
        {
          "indexed": false,
          "name": "expireAt",
          "type": "uint256"
        }
      ],
      "name": "Offered",
      "type": "event"
    },
    {
      "anonymous": false,
      "inputs": [
        {
          "indexed": true,
          "name": "node",
          "type": "bytes32"
        },
        {
          "indexed": true,
          "name": "newOwner",
          "type": "address"
        },
        {
          "indexed": false,
          "name": "price",
          "type": "uint256"
        }
      ],
      "name": "Bought",
      "type": "event"
    },
    {
      "anonymous": false,
      "inputs": [
        {
          "indexed": true,
          "name": "node",
          "type": "bytes32"
        }
      ],
      "name": "Canceled",
      "type": "event"
    },
    {
      "anonymous": false,
      "inputs": [
        {
          "indexed": true,
          "name": "node",
          "type": "bytes32"
        },
        {
          "indexed": true,
          "name": "owner",
          "type": "address"
        }
      ],
      "name": "DomainWithdrawn",
      "type": "event"
    },
    {
      "constant": true,
      "inputs": [
        {
          "name": "_hash",
          "type": "bytes32"
        }
      ],
      "name": "isOffered",
      "outputs": [
        {
          "name": "",
          "type": "bool"
        }
      ],
      "payable": false,
      "stateMutability": "view",
      "type": "function"
    },
    {
      "constant": true,
      "inputs": [
        {
          "name": "_hash",
          "type": "bytes32"
        }
      ],
      "name": "deedAddr",
      "outputs": [
        {
          "name": "",
          "type": "address"
        }
      ],
      "payable": false,
      "stateMutability": "view",
      "type": "function"
    },
    {
      "constant": false,
      "inputs": [
        {
          "name": "_hash",
          "type": "bytes32"
        },
        {
          "name": "_price",
          "type": "uint256"
        },
        {
          "name": "_expireAt",
          "type": "uint256"
        }
      ],
      "name": "offer",
      "outputs": [],
      "payable": false,
      "stateMutability": "nonpayable",
      "type": "function"
    },
    {
      "constant": false,
      "inputs": [
        {
          "name": "_hash",
          "type": "bytes32"
        }
      ],
      "name": "cancelOffer",
      "outputs": [],
      "payable": false,
      "stateMutability": "nonpayable",
      "type": "function"
    },
    {
      "constant": false,
      "inputs": [
        {
          "name": "_hash",
          "type": "bytes32"
        }
      ],
      "name": "cancelOfferAndWithdraw",
      "outputs": [],
      "payable": false,
      "stateMutability": "nonpayable",
      "type": "function"
    },
    {
      "constant": false,
      "inputs": [
        {
          "name": "_hash",
          "type": "bytes32"
        }
      ],
      "name": "buy",
      "outputs": [],
      "payable": true,
      "stateMutability": "payable",
      "type": "function"
    }
  ],
  "bytecode": "0x608060405234801561001057600080fd5b50604051602080610d978339810160405251600160a060020a038116151561003757600080fd5b60018054600160a060020a031916600160a060020a0392909216919091179055610d31806100666000396000f3006080604052600436106100695763ffffffff60e060020a6000350416632b8bf434811461006e578063498196721461009a5780636eb97197146100ba57806395f57507146100fa5780639c9a10611461012e578063b8ebdb4614610139578063f952279e14610151575b600080fd5b34801561007a57600080fd5b50610086600435610169565b604080519115158252519081900360200190f35b3480156100a657600080fd5b506100b86004356024356044356101a7565b005b3480156100c657600080fd5b506100d2600435610420565b60408051600160a060020a039094168452602084019290925282820152519081900360600190f35b34801561010657600080fd5b5061011260043561044c565b60408051600160a060020a039092168252519081900360200190f35b6100b86004356104d7565b34801561014557600080fd5b506100b8600435610816565b34801561015d57600080fd5b506100b8600435610af5565b600081815260026020526040812054600160a060020a0316158015906101a15750600082815260026020819052604090912001544211155b92915050565b6001546040805160e160020a63133db4910281526004810186905290516000928392600160a060020a039091169163267b69229160248082019260a09290919082900301818787803b1580156101fc57600080fd5b505af1158015610210573d6000803e3d6000fd5b505050506040513d60a081101561022657600080fd5b50602001519150819050600160a060020a038116158015906102c2575033600160a060020a031681600160a060020a031663674f220f6040518163ffffffff1660e060020a028152600401602060405180830381600087803b15801561028b57600080fd5b505af115801561029f573d6000803e3d6000fd5b505050506040513d60208110156102b557600080fd5b5051600160a060020a0316145b8015610348575030600160a060020a031681600160a060020a0316638da5cb5b6040518163ffffffff1660e060020a028152600401602060405180830381600087803b15801561031157600080fd5b505af1158015610325573d6000803e3d6000fd5b505050506040513d602081101561033b57600080fd5b5051600160a060020a0316145b151561035357600080fd5b60648311801561036257504283115b80156103715750606442018310155b151561037c57600080fd5b6040805160608101825233808252602080830188815283850188815260008b81526002808552908790209551865473ffffffffffffffffffffffffffffffffffffffff1916600160a060020a03909116178655915160018601555193019290925582518781529182018690528251909288927f76f83495fb03eff03b586f20387c72e9809f7ec1a27fc1b8a9a87c79b482982d929081900390910190a35050505050565b6002602081905260009182526040909120805460018201549190920154600160a060020a039092169183565b6001546040805160e160020a63133db4910281526004810184905290516000928392600160a060020a039091169163267b69229160248082019260a09290919082900301818787803b1580156104a157600080fd5b505af11580156104b5573d6000803e3d6000fd5b505050506040513d60a08110156104cb57600080fd5b50602001519392505050565b6000806104e383610169565b801561050057506000838152600260205260409020600101543410155b151561050b57600080fd5b6001546040805160e160020a63133db491028152600481018690529051600160a060020a039092169163267b69229160248082019260a0929091908290030181600087803b15801561055c57600080fd5b505af1158015610570573d6000803e3d6000fd5b505050506040513d60a081101561058657600080fd5b50602001519150819050600160a060020a03811615801590610622575030600160a060020a031681600160a060020a0316638da5cb5b6040518163ffffffff1660e060020a028152600401602060405180830381600087803b1580156105eb57600080fd5b505af11580156105ff573d6000803e3d6000fd5b505050506040513d602081101561061557600080fd5b5051600160a060020a0316145b80156106cf575060008381526002602090815260408083205481517f674f220f0000000000000000000000000000000000000000000000000000000081529151600160a060020a03918216949186169363674f220f93600480820194929392918390030190829087803b15801561069857600080fd5b505af11580156106ac573d6000803e3d6000fd5b505050506040513d60208110156106c257600080fd5b5051600160a060020a0316145b15156106da57600080fd5b600083815260026020526040808220549051600160a060020a03909116913480156108fc02929091818181858888f1935050505015801561071f573d6000803e3d6000fd5b50600154604080517f79ce9fac000000000000000000000000000000000000000000000000000000008152600481018690523360248201529051600160a060020a03909216916379ce9fac9160448082019260009290919082900301818387803b15801561078c57600080fd5b505af11580156107a0573d6000803e3d6000fd5b5050506000848152600260208181526040808420805473ffffffffffffffffffffffffffffffffffffffff1916815560018101859055909201929092558051348152905133935086927fffa101c6ca2880d2c4f3240ea96a0cdbac504f2ee13706c9cf67c1b27219df94928290030190a3505050565b6001546040805160e160020a63133db4910281526004810184905290516000928392600160a060020a039091169163267b69229160248082019260a09290919082900301818787803b15801561086b57600080fd5b505af115801561087f573d6000803e3d6000fd5b505050506040513d60a081101561089557600080fd5b50602001519150819050600160a060020a03811615801590610931575033600160a060020a031681600160a060020a031663674f220f6040518163ffffffff1660e060020a028152600401602060405180830381600087803b1580156108fa57600080fd5b505af115801561090e573d6000803e3d6000fd5b505050506040513d602081101561092457600080fd5b5051600160a060020a0316145b80156109b7575030600160a060020a031681600160a060020a0316638da5cb5b6040518163ffffffff1660e060020a028152600401602060405180830381600087803b15801561098057600080fd5b505af1158015610994573d6000803e3d6000fd5b505050506040513d60208110156109aa57600080fd5b5051600160a060020a0316145b15156109c257600080fd5b600083815260026020526040902054600160a060020a031615610a3f576000838152600260208190526040808320805473ffffffffffffffffffffffffffffffffffffffff19168155600181018490559091018290555184917f134fdd648feeaf30251f0157f9624ef8608ff9a042aad6d13e73f35d21d3f88d91a25b600154604080517f79ce9fac000000000000000000000000000000000000000000000000000000008152600481018690523360248201529051600160a060020a03909216916379ce9fac9160448082019260009290919082900301818387803b158015610aab57600080fd5b505af1158015610abf573d6000803e3d6000fd5b50506040513392508591507f2fc1d00f5f850aa7dcd8e002722a487c630210ca9ebda27b4bb2071de3e103a890600090a3505050565b6001546040805160e160020a63133db4910281526004810184905290516000928392600160a060020a039091169163267b69229160248082019260a09290919082900301818787803b158015610b4a57600080fd5b505af1158015610b5e573d6000803e3d6000fd5b505050506040513d60a0811015610b7457600080fd5b50602001519150819050600160a060020a03811615801590610c10575033600160a060020a031681600160a060020a031663674f220f6040518163ffffffff1660e060020a028152600401602060405180830381600087803b158015610bd957600080fd5b505af1158015610bed573d6000803e3d6000fd5b505050506040513d6020811015610c0357600080fd5b5051600160a060020a0316145b8015610c96575030600160a060020a031681600160a060020a0316638da5cb5b6040518163ffffffff1660e060020a028152600401602060405180830381600087803b158015610c5f57600080fd5b505af1158015610c73573d6000803e3d6000fd5b505050506040513d6020811015610c8957600080fd5b5051600160a060020a0316145b1515610ca157600080fd5b6000838152600260208190526040808320805473ffffffffffffffffffffffffffffffffffffffff19168155600181018490559091018290555184917f134fdd648feeaf30251f0157f9624ef8608ff9a042aad6d13e73f35d21d3f88d91a25050505600a165627a7a72305820b9c0ff108c1f4e077107e8fdc328ae9fb9cc3ad8b06a56ba62f6abe0760e02a60029",
  "source": "pragma solidity 0.4.24;\n\nimport \"@ensdomains/ens/contracts/ENSRegistry.sol\";\nimport \"@ensdomains/ens/contracts/ENS.sol\";\nimport \"@ensdomains/ens/contracts/Deed.sol\";\nimport \"./ens/TestRegistrarSimplified.sol\";\n\ncontract DirectListing {\n    event Offered(bytes32 indexed node, address indexed owner, uint256 price, uint256 expireAt);\n    event Bought(bytes32 indexed node, address indexed newOwner, uint256 price);\n    event Canceled(bytes32 indexed node);\n    event DomainWithdrawn(bytes32 indexed node, address indexed owner);\n\n    ENS ens;\n    Registrar registrar;\n\n    struct Offering {\n        address nodeOwner;\n        uint256 price;\n        uint256 expireAt;\n    }\n\n    // Minimum listing time in seconds\n    uint constant MIN_LISTING_TIME = 100;\n\n    mapping (bytes32 => Offering) public offerings;\n\n    constructor(address _registrar) public {\n        require(_registrar != 0);\n        registrar = Registrar(_registrar);\n    }\n\n    // https://ethereum.stackexchange.com/questions/7853/is-the-block-timestamp-value-in-solidity-seconds-or-milliseconds\n    function isOffered(bytes32 _hash) public view returns (bool) {\n        return ((offerings[_hash].nodeOwner != 0x0) && (offerings[_hash].expireAt >= block.timestamp));\n    }\n\n    function deedAddr(bytes32 _hash) public view returns (address) {\n        var (,deedAddr,,,) = registrar.entries(_hash);\n        return deedAddr;\n    }\n\n    function offer(bytes32 _hash, uint256 _price, uint256 _expireAt) external {\n        var (,deedAddr,,,) = registrar.entries(_hash);\n        var deed = Deed(deedAddr);\n\n        require((deedAddr != 0x0) && (deed.previousOwner() == msg.sender) && (deed.owner() == address(this)));\n        require((_expireAt > MIN_LISTING_TIME) && (_expireAt > block.timestamp) && (_expireAt >= (block.timestamp + MIN_LISTING_TIME)));\n\n        // the deed owner is the msg.sender\n        // node should not be 0 or already offered\n        // nodeOwner not 0\n        // block.timestamp <= _expireAt\n\n        offerings[_hash] = Offering(msg.sender, _price, _expireAt);\n\n        emit Offered(_hash, msg.sender, _price, _expireAt);\n    }\n\n    function cancelOffer(bytes32 _hash) external {\n        // https://ethereum.stackexchange.com/questions/28972/who-is-msg-sender-when-calling-a-contract-from-a-contract\n        // transfer back the domain to the owner\n        var (,deedAddr,,,) = registrar.entries(_hash);\n        var deed = Deed(deedAddr);\n        require((deedAddr != 0x0) && (deed.previousOwner() == msg.sender) && (deed.owner() == address(this)));\n\n        delete offerings[_hash];\n\n        emit Canceled(_hash);\n    }\n\n    function cancelOfferAndWithdraw(bytes32 _hash) external {\n        // transfer back the domain to the owner\n        var (,deedAddr,,,) = registrar.entries(_hash);\n        var deed = Deed(deedAddr);\n        require((deedAddr != 0x0) && (deed.previousOwner() == msg.sender) && (deed.owner() == address(this)));\n\n        if (offerings[_hash].nodeOwner != 0x0)\n        {\n            delete offerings[_hash];\n\n            emit Canceled(_hash);\n        }\n\n        registrar.transfer(_hash, msg.sender);\n\n        emit DomainWithdrawn(_hash, msg.sender);\n    }\n\n    function buy(bytes32 _hash) external payable {\n        require(isOffered(_hash) && (msg.value >= offerings[_hash].price));\n\n        var (,deedAddr,,,) = registrar.entries(_hash);\n        var deed = Deed(deedAddr);\n        require((deedAddr != 0x0) && (deed.owner() == address(this)) && (deed.previousOwner() == offerings[_hash].nodeOwner));\n\n        // https://ethereum.stackexchange.com/questions/19341/address-send-vs-address-transfer-best-practice-usage\n        // https://solidity.readthedocs.io/en/develop/units-and-global-variables.html?highlight=transfer#address-related\n        offerings[_hash].nodeOwner.transfer(msg.value);\n\n        registrar.transfer(_hash, msg.sender);\n\n        delete offerings[_hash];\n\n        emit Bought(_hash, msg.sender, msg.value);\n    }\n}\n",
  "sourcePath": "/Users/vietlq/projects/ens-namex/contracts/DirectListing.sol",
  "compiler": {
    "name": "solc",
    "version": "0.4.24+commit.e67f0147.Emscripten.clang"
  },
  "schemaVersion": "2.0.1",
  "updatedAt": "2018-08-16T06:33:53.235Z"
}