{
  "contractName": "Registrar",
  "abi": [
    {
      "constant": true,
      "inputs": [],
      "name": "ens",
      "outputs": [
        {
          "name": "",
          "type": "address"
        }
      ],
      "payable": false,
      "stateMutability": "view",
      "type": "function"
    },
    {
      "constant": true,
      "inputs": [
        {
          "name": "",
          "type": "address"
        },
        {
          "name": "",
          "type": "bytes32"
        }
      ],
      "name": "sealedBids",
      "outputs": [
        {
          "name": "",
          "type": "address"
        }
      ],
      "payable": false,
      "stateMutability": "view",
      "type": "function"
    },
    {
      "constant": true,
      "inputs": [],
      "name": "registryStarted",
      "outputs": [
        {
          "name": "",
          "type": "uint256"
        }
      ],
      "payable": false,
      "stateMutability": "view",
      "type": "function"
    },
    {
      "constant": true,
      "inputs": [],
      "name": "launchLength",
      "outputs": [
        {
          "name": "",
          "type": "uint32"
        }
      ],
      "payable": false,
      "stateMutability": "view",
      "type": "function"
    },
    {
      "constant": true,
      "inputs": [],
      "name": "rootNode",
      "outputs": [
        {
          "name": "",
          "type": "bytes32"
        }
      ],
      "payable": false,
      "stateMutability": "view",
      "type": "function"
    },
    {
      "inputs": [
        {
          "name": "_ens",
          "type": "address"
        },
        {
          "name": "_rootNode",
          "type": "bytes32"
        },
        {
          "name": "_startDate",
          "type": "uint256"
        }
      ],
      "payable": false,
      "stateMutability": "nonpayable",
      "type": "constructor"
    },
    {
      "anonymous": false,
      "inputs": [
        {
          "indexed": true,
          "name": "hash",
          "type": "bytes32"
        },
        {
          "indexed": false,
          "name": "registrationDate",
          "type": "uint256"
        }
      ],
      "name": "AuctionStarted",
      "type": "event"
    },
    {
      "anonymous": false,
      "inputs": [
        {
          "indexed": true,
          "name": "hash",
          "type": "bytes32"
        },
        {
          "indexed": true,
          "name": "bidder",
          "type": "address"
        },
        {
          "indexed": false,
          "name": "deposit",
          "type": "uint256"
        }
      ],
      "name": "NewBid",
      "type": "event"
    },
    {
      "anonymous": false,
      "inputs": [
        {
          "indexed": true,
          "name": "hash",
          "type": "bytes32"
        },
        {
          "indexed": true,
          "name": "owner",
          "type": "address"
        },
        {
          "indexed": false,
          "name": "value",
          "type": "uint256"
        },
        {
          "indexed": false,
          "name": "status",
          "type": "uint8"
        }
      ],
      "name": "BidRevealed",
      "type": "event"
    },
    {
      "anonymous": false,
      "inputs": [
        {
          "indexed": true,
          "name": "hash",
          "type": "bytes32"
        },
        {
          "indexed": true,
          "name": "owner",
          "type": "address"
        },
        {
          "indexed": false,
          "name": "value",
          "type": "uint256"
        },
        {
          "indexed": false,
          "name": "registrationDate",
          "type": "uint256"
        }
      ],
      "name": "HashRegistered",
      "type": "event"
    },
    {
      "anonymous": false,
      "inputs": [
        {
          "indexed": true,
          "name": "hash",
          "type": "bytes32"
        },
        {
          "indexed": false,
          "name": "value",
          "type": "uint256"
        }
      ],
      "name": "HashReleased",
      "type": "event"
    },
    {
      "anonymous": false,
      "inputs": [
        {
          "indexed": true,
          "name": "hash",
          "type": "bytes32"
        },
        {
          "indexed": true,
          "name": "name",
          "type": "string"
        },
        {
          "indexed": false,
          "name": "value",
          "type": "uint256"
        },
        {
          "indexed": false,
          "name": "registrationDate",
          "type": "uint256"
        }
      ],
      "name": "HashInvalidated",
      "type": "event"
    },
    {
      "constant": false,
      "inputs": [
        {
          "name": "_hash",
          "type": "bytes32"
        }
      ],
      "name": "startAuction",
      "outputs": [],
      "payable": false,
      "stateMutability": "nonpayable",
      "type": "function"
    },
    {
      "constant": false,
      "inputs": [
        {
          "name": "_hashes",
          "type": "bytes32[]"
        }
      ],
      "name": "startAuctions",
      "outputs": [],
      "payable": false,
      "stateMutability": "nonpayable",
      "type": "function"
    },
    {
      "constant": false,
      "inputs": [
        {
          "name": "sealedBid",
          "type": "bytes32"
        }
      ],
      "name": "newBid",
      "outputs": [],
      "payable": true,
      "stateMutability": "payable",
      "type": "function"
    },
    {
      "constant": false,
      "inputs": [
        {
          "name": "hashes",
          "type": "bytes32[]"
        },
        {
          "name": "sealedBid",
          "type": "bytes32"
        }
      ],
      "name": "startAuctionsAndBid",
      "outputs": [],
      "payable": true,
      "stateMutability": "payable",
      "type": "function"
    },
    {
      "constant": false,
      "inputs": [
        {
          "name": "_hash",
          "type": "bytes32"
        },
        {
          "name": "_value",
          "type": "uint256"
        },
        {
          "name": "_salt",
          "type": "bytes32"
        }
      ],
      "name": "unsealBid",
      "outputs": [],
      "payable": false,
      "stateMutability": "nonpayable",
      "type": "function"
    },
    {
      "constant": false,
      "inputs": [
        {
          "name": "bidder",
          "type": "address"
        },
        {
          "name": "seal",
          "type": "bytes32"
        }
      ],
      "name": "cancelBid",
      "outputs": [],
      "payable": false,
      "stateMutability": "nonpayable",
      "type": "function"
    },
    {
      "constant": false,
      "inputs": [
        {
          "name": "_hash",
          "type": "bytes32"
        }
      ],
      "name": "finalizeAuction",
      "outputs": [],
      "payable": false,
      "stateMutability": "nonpayable",
      "type": "function"
    },
    {
      "constant": false,
      "inputs": [
        {
          "name": "_hash",
          "type": "bytes32"
        },
        {
          "name": "newOwner",
          "type": "address"
        }
      ],
      "name": "transfer",
      "outputs": [],
      "payable": false,
      "stateMutability": "nonpayable",
      "type": "function"
    },
    {
      "constant": false,
      "inputs": [
        {
          "name": "_hash",
          "type": "bytes32"
        }
      ],
      "name": "releaseDeed",
      "outputs": [],
      "payable": false,
      "stateMutability": "nonpayable",
      "type": "function"
    },
    {
      "constant": false,
      "inputs": [
        {
          "name": "unhashedName",
          "type": "string"
        }
      ],
      "name": "invalidateName",
      "outputs": [],
      "payable": false,
      "stateMutability": "nonpayable",
      "type": "function"
    },
    {
      "constant": false,
      "inputs": [
        {
          "name": "labels",
          "type": "bytes32[]"
        }
      ],
      "name": "eraseNode",
      "outputs": [],
      "payable": false,
      "stateMutability": "nonpayable",
      "type": "function"
    },
    {
      "constant": false,
      "inputs": [
        {
          "name": "_hash",
          "type": "bytes32"
        }
      ],
      "name": "transferRegistrars",
      "outputs": [],
      "payable": false,
      "stateMutability": "nonpayable",
      "type": "function"
    },
    {
      "constant": false,
      "inputs": [
        {
          "name": "hash",
          "type": "bytes32"
        },
        {
          "name": "deed",
          "type": "address"
        },
        {
          "name": "registrationDate",
          "type": "uint256"
        }
      ],
      "name": "acceptRegistrarTransfer",
      "outputs": [],
      "payable": false,
      "stateMutability": "nonpayable",
      "type": "function"
    },
    {
      "constant": true,
      "inputs": [
        {
          "name": "_hash",
          "type": "bytes32"
        }
      ],
      "name": "state",
      "outputs": [
        {
          "name": "",
          "type": "uint8"
        }
      ],
      "payable": false,
      "stateMutability": "view",
      "type": "function"
    },
    {
      "constant": true,
      "inputs": [
        {
          "name": "_hash",
          "type": "bytes32"
        }
      ],
      "name": "entries",
      "outputs": [
        {
          "name": "",
          "type": "uint8"
        },
        {
          "name": "",
          "type": "address"
        },
        {
          "name": "",
          "type": "uint256"
        },
        {
          "name": "",
          "type": "uint256"
        },
        {
          "name": "",
          "type": "uint256"
        }
      ],
      "payable": false,
      "stateMutability": "view",
      "type": "function"
    },
    {
      "constant": true,
      "inputs": [
        {
          "name": "_hash",
          "type": "bytes32"
        },
        {
          "name": "_timestamp",
          "type": "uint256"
        }
      ],
      "name": "isAllowed",
      "outputs": [
        {
          "name": "allowed",
          "type": "bool"
        }
      ],
      "payable": false,
      "stateMutability": "view",
      "type": "function"
    },
    {
      "constant": true,
      "inputs": [
        {
          "name": "_hash",
          "type": "bytes32"
        }
      ],
      "name": "getAllowedTime",
      "outputs": [
        {
          "name": "",
          "type": "uint256"
        }
      ],
      "payable": false,
      "stateMutability": "view",
      "type": "function"
    },
    {
      "constant": true,
      "inputs": [
        {
          "name": "hash",
          "type": "bytes32"
        },
        {
          "name": "owner",
          "type": "address"
        },
        {
          "name": "value",
          "type": "uint256"
        },
        {
          "name": "salt",
          "type": "bytes32"
        }
      ],
      "name": "shaBid",
      "outputs": [
        {
          "name": "",
          "type": "bytes32"
        }
      ],
      "payable": false,
      "stateMutability": "pure",
      "type": "function"
    }
  ],
  "bytecode": "0x608060405234801561001057600080fd5b5060405160608061298a83398101604090815281516020830151919092015160008054600160a060020a031916600160a060020a0385161781556001839055811161005b574261005d565b805b600455505050612918806100726000396000f3006080604052600436106101195763ffffffff60e060020a6000350416630230a07c811461011e57806313c89a8f1461013857806315f733311461016257806322ec1244146101bb5780632525f5c1146101e5578063267b6922146102095780633f15457f1461026957806347872b421461029a5780635ddae283146102b85780635e431709146102d057806361d585da146102f457806379ce9fac146103305780639350333714610354578063983b94fb146103835780639c67f06f1461039b578063ae1a0b0c146103b0578063ce92dced146103de578063de10f04b146103e9578063e27fe50f1461043e578063ea9e107a14610493578063ede8acdb146104ba578063faff50a8146104d2578063febefd61146104e7575b600080fd5b34801561012a57600080fd5b50610136600435610531565b005b34801561014457600080fd5b5061015060043561077f565b60408051918252519081900360200190f35b34801561016e57600080fd5b506040805160206004803580820135601f81018490048402850184019095528484526101369436949293602493928401919081908401838280828437509497506107a19650505050505050565b3480156101c757600080fd5b50610150600435600160a060020a0360243516604435606435610b20565b3480156101f157600080fd5b50610136600160a060020a0360043516602435610b64565b34801561021557600080fd5b50610221600435610d55565b6040518086600581111561023157fe5b60ff168152600160a060020a0390951660208601525060408085019390935260608401919091526080830152519081900360a0019150f35b34801561027557600080fd5b5061027e610da1565b60408051600160a060020a039092168252519081900360200190f35b3480156102a657600080fd5b50610136600435602435604435610db0565b3480156102c457600080fd5b50610136600435611384565b3480156102dc57600080fd5b5061027e600160a060020a036004351660243561161c565b34801561030057600080fd5b5061030c600435611642565b6040518082600581111561031c57fe5b60ff16815260200191505060405180910390f35b34801561033c57600080fd5b50610136600435600160a060020a03602435166116b6565b34801561036057600080fd5b5061036f60043560243561181c565b604080519115158252519081900360200190f35b34801561038f57600080fd5b50610136600435611832565b3480156103a757600080fd5b50610150611af4565b3480156103bc57600080fd5b506103c5611afa565b6040805163ffffffff9092168252519081900360200190f35b610136600435611aff565b3480156103f557600080fd5b506040805160206004803580820135838102808601850190965280855261013695369593946024949385019291829185019084908082843750949750611bea9650505050505050565b34801561044a57600080fd5b506040805160206004803580820135838102808601850190965280855261013695369593946024949385019291829185019084908082843750949750611c479650505050505050565b34801561049f57600080fd5b50610136600435600160a060020a0360243516604435611c7f565b3480156104c657600080fd5b50610136600435611c84565b3480156104de57600080fd5b50610150611de0565b60408051602060048035808201358381028086018501909652808552610136953695939460249493850192918291850190849080828437509497505093359450611de69350505050565b60008082600261054082611642565b600581111561054b57fe5b1480156105e05750600081815260026020908152604080832054815160e060020a638da5cb5b0281529151600160a060020a0390911693638da5cb5b93600480850194919392918390030190829087803b1580156105a857600080fd5b505af11580156105bc573d6000803e3d6000fd5b505050506040513d60208110156105d257600080fd5b5051600160a060020a031633145b15156105eb57600080fd5b600084815260026020526040902080546001820154919450600160a060020a031692506301e1338001421015806106ad5750600080546001546040805160e060020a6302571be30281526004810192909252513093600160a060020a03909316926302571be392602480820193602093909283900390910190829087803b15801561067557600080fd5b505af1158015610689573d6000803e3d6000fd5b505050506040513d602081101561069f57600080fd5b5051600160a060020a031614155b15156106b857600080fd5b60006002840181905560038401558254600160a060020a03191683556106dd84611df8565b81600160a060020a031663bbe427716103e86040518263ffffffff1660e060020a02815260040180828152602001915050600060405180830381600087803b15801561072857600080fd5b505af115801561073c573d6000803e3d6000fd5b505050600284015460408051918252518692507f292b79b9246fa2c8e77d3fe195b251f9cb839d7d038e667c069ee7708c631e169181900360200190a250505050565b600454700100000000000000000000000000000000600a818404020401919050565b600080826040518082805190602001908083835b602083106107d45780518252601f1990920191602091820191016107b5565b5181516020939093036101000a6000190180199091169216919091179052604051920182900390912092506002915081905061080f83611642565b600581111561081a57fe5b1461082457600080fd5b600661082f8661202f565b111561083a57600080fd5b846040518082805190602001908083835b6020831061086a5780518252601f19909201916020918201910161084b565b51815160209384036101000a60001901801990921691161790526040805192909401829003909120600081815260029092529290209197509095506108b49250869150611df89050565b8254600160a060020a031615610a5f576108d98360020154662386f26fc100006120d9565b60028481018290558454604080517fb0c809720000000000000000000000000000000000000000000000000000000081529290930460048301526000602483018190529251600160a060020a039091169263b0c80972926044808201939182900301818387803b15801561094c57600080fd5b505af1158015610960573d6000803e3d6000fd5b50508454604080517f13af40350000000000000000000000000000000000000000000000000000000081523360048201529051600160a060020a0390921693506313af4035925060248082019260009290919082900301818387803b1580156109c857600080fd5b505af11580156109dc573d6000803e3d6000fd5b50508454604080517fbbe427710000000000000000000000000000000000000000000000000000000081526103e860048201529051600160a060020a03909216935063bbe42771925060248082019260009290919082900301818387803b158015610a4657600080fd5b505af1158015610a5a573d6000803e3d6000fd5b505050505b846040518082805190602001908083835b60208310610a8f5780518252601f199092019160209182019101610a70565b51815160209384036101000a60001901801990921691161790526040805192909401829003822060028a015460018b01549084529183019190915283519095508994507f1f9c649fe47e58bb60f4e52f0d90e4c47a526c9f90c5113df842c025970b66ad93918190039091019150a3505060006002820181905560038201558054600160a060020a03191690555050565b60408051948552600160a060020a03939093166c01000000000000000000000000026020850152603484019190915260548301525160749181900391909101902090565b600160a060020a038083166000908152600360209081526040808320858452909152902054168015801590610c11575061012c63ffffffff1681600160a060020a03166305b344106040518163ffffffff1660e060020a028152600401602060405180830381600087803b158015610bdb57600080fd5b505af1158015610bef573d6000803e3d6000fd5b505050506040513d6020811015610c0557600080fd5b50510162127500014210155b1515610c1c57600080fd5b604080517f13af40350000000000000000000000000000000000000000000000000000000081523360048201529051600160a060020a038316916313af403591602480830192600092919082900301818387803b158015610c7c57600080fd5b505af1158015610c90573d6000803e3d6000fd5b5050505080600160a060020a031663bbe4277160056040518263ffffffff1660e060020a02815260040180828152602001915050600060405180830381600087803b158015610cde57600080fd5b505af1158015610cf2573d6000803e3d6000fd5b50505050600160a060020a038316600081815260036020908152604080832086845282528083208054600160a060020a03191690558051928352600591830191909152805185926000805160206128cd83398151915292908290030190a3505050565b60008181526002602052604081208190819081908190610d7487611642565b815460018301546002840154600390940154929a600160a060020a03909216995097509195509350915050565b600054600160a060020a031681565b600080600080600080610dc589338a8a610b20565b336000908152600360209081526040808320848452909152902054909650600160a060020a03169450841515610dfa57600080fd5b33600090815260036020908152604080832089845282528083208054600160a060020a03191690558b83526002825280832081517f3fa4f2450000000000000000000000000000000000000000000000000000000081529151909750610ebc938c93600160a060020a038b1693633fa4f2459360048083019491928390030190829087803b158015610e8b57600080fd5b505af1158015610e9f573d6000803e3d6000fd5b505050506040513d6020811015610eb557600080fd5b50516120f1565b604080517fb0c8097200000000000000000000000000000000000000000000000000000000815260048101839052600160248201529051919450600160a060020a0387169163b0c809729160448082019260009290919082900301818387803b158015610f2857600080fd5b505af1158015610f3c573d6000803e3d6000fd5b50505050610f4989611642565b91506002826005811115610f5957fe5b1415610ff35784600160a060020a031663bbe4277160056040518263ffffffff1660e060020a02815260040180828152602001915050600060405180830381600087803b158015610fa957600080fd5b505af1158015610fbd573d6000803e3d6000fd5b5050604080518681526001602082015281513394508d93506000805160206128cd833981519152929181900390910190a3611379565b600482600581111561100157fe5b1461100b57600080fd5b662386f26fc100008310806110955750607863ffffffff1684600101540385600160a060020a03166305b344106040518163ffffffff1660e060020a028152600401602060405180830381600087803b15801561106757600080fd5b505af115801561107b573d6000803e3d6000fd5b505050506040513d602081101561109157600080fd5b5051115b1561112f5784600160a060020a031663bbe427716103e36040518263ffffffff1660e060020a02815260040180828152602001915050600060405180830381600087803b1580156110e557600080fd5b505af11580156110f9573d6000803e3d6000fd5b5050604080518681526000602082015281513394508d93506000805160206128cd833981519152929181900390910190a3611379565b8360030154831115611229578354600160a060020a0316156111cc57508254604080517fbbe427710000000000000000000000000000000000000000000000000000000081526103e360048201529051600160a060020a0390921691829163bbe4277191602480830192600092919082900301818387803b1580156111b357600080fd5b505af11580156111c7573d6000803e3d6000fd5b505050505b600384018054600280870191909155908490558454600160a060020a031916600160a060020a038716178555604080518581526020810192909252805133928c926000805160206128cd83398151915292918290030190a3611379565b83600201548311156112e85760028401839055604080517fbbe427710000000000000000000000000000000000000000000000000000000081526103e360048201529051600160a060020a0387169163bbe4277191602480830192600092919082900301818387803b15801561129e57600080fd5b505af11580156112b2573d6000803e3d6000fd5b5050604080518681526003602082015281513394508d93506000805160206128cd833981519152929181900390910190a3611379565b84600160a060020a031663bbe427716103e36040518263ffffffff1660e060020a02815260040180828152602001915050600060405180830381600087803b15801561133357600080fd5b505af1158015611347573d6000803e3d6000fd5b5050604080518681526004602082015281513394508d93506000805160206128cd833981519152929181900390910190a35b505050505050505050565b60008082600261139382611642565b600581111561139e57fe5b1480156114335750600081815260026020908152604080832054815160e060020a638da5cb5b0281529151600160a060020a0390911693638da5cb5b93600480850194919392918390030190829087803b1580156113fb57600080fd5b505af115801561140f573d6000803e3d6000fd5b505050506040513d602081101561142557600080fd5b5051600160a060020a031633145b151561143e57600080fd5b600080546001546040805160e060020a6302571be3028152600481019290925251600160a060020a03909216926302571be3926024808401936020939083900390910190829087803b15801561149357600080fd5b505af11580156114a7573d6000803e3d6000fd5b505050506040513d60208110156114bd57600080fd5b50519250600160a060020a0383163014156114d757600080fd5b600084815260026020526040808220805482517ffaab9d39000000000000000000000000000000000000000000000000000000008152600160a060020a038881166004830152935192965092169263faab9d39926024808201939182900301818387803b15801561154757600080fd5b505af115801561155b573d6000803e3d6000fd5b505083546001850154604080517fea9e107a000000000000000000000000000000000000000000000000000000008152600481018a9052600160a060020a039384166024820152604481019290925251918716935063ea9e107a925060648082019260009290919082900301818387803b1580156115d857600080fd5b505af11580156115ec573d6000803e3d6000fd5b50508354600160a060020a0319168455505060006001830181905560028301819055600390920191909155505050565b6003602090815260009283526040808420909152908252902054600160a060020a031681565b600081815260026020526040812061165a834261181c565b151561166957600591506116b0565b80600101544210156116975760018101546077190142101561168e57600191506116b0565b600491506116b0565b600381015415156116ab57600091506116b0565b600291505b50919050565b60008260026116c482611642565b60058111156116cf57fe5b1480156117645750600081815260026020908152604080832054815160e060020a638da5cb5b0281529151600160a060020a0390911693638da5cb5b93600480850194919392918390030190829087803b15801561172c57600080fd5b505af1158015611740573d6000803e3d6000fd5b505050506040513d602081101561175657600080fd5b5051600160a060020a031633145b151561176f57600080fd5b600160a060020a038316151561178457600080fd5b600084815260026020526040808220805482517f13af4035000000000000000000000000000000000000000000000000000000008152600160a060020a03888116600483015293519296509216926313af4035926024808201939182900301818387803b1580156117f457600080fd5b505af1158015611808573d6000803e3d6000fd5b505050506118168484612102565b50505050565b60006118278361077f565b821190505b92915050565b600081600261184082611642565b600581111561184b57fe5b1480156118e05750600081815260026020908152604080832054815160e060020a638da5cb5b0281529151600160a060020a0390911693638da5cb5b93600480850194919392918390030190829087803b1580156118a857600080fd5b505af11580156118bc573d6000803e3d6000fd5b505050506040513d60208110156118d257600080fd5b5051600160a060020a031633145b15156118eb57600080fd5b60008381526002602081905260409091209081015490925061191490662386f26fc100006120d9565b600283018190558254604080517fb0c8097200000000000000000000000000000000000000000000000000000000815260048101939093526001602484015251600160a060020a039091169163b0c8097291604480830192600092919082900301818387803b15801561198657600080fd5b505af115801561199a573d6000803e3d6000fd5b50505050611a28838360000160009054906101000a9004600160a060020a0316600160a060020a0316638da5cb5b6040518163ffffffff1660e060020a028152600401602060405180830381600087803b1580156119f757600080fd5b505af1158015611a0b573d6000803e3d6000fd5b505050506040513d6020811015611a2157600080fd5b5051612102565b81546040805160e060020a638da5cb5b0281529051600160a060020a0390921691638da5cb5b916004808201926020929091908290030181600087803b158015611a7157600080fd5b505af1158015611a85573d6000803e3d6000fd5b505050506040513d6020811015611a9b57600080fd5b5051600283015460018401546040805192835260208301919091528051600160a060020a039093169286927f0f0c27adfd84b60b6f456b0e87cdccb1e5fb9603991588d87fa99f5b6b61e67092908290030190a3505050565b60045481565b600a81565b336000908152600360209081526040808320848452909152812054600160a060020a031615611b2d57600080fd5b662386f26fc10000341015611b4157600080fd5b3433611b4b6123e7565b600160a060020a039091168152604051908190036020019082f080158015611b77573d6000803e3d6000fd5b503360008181526003602090815260408083208884528252918290208054600160a060020a031916600160a060020a0386161790558151348152915193955091935085927fb556ff269c1b6714f432c36431e2041d28436a73b6c3f19c021827bbdc6bfc29929181900390910190a35050565b80511515611bf757600080fd5b6002611c1d826001845103815181101515611c0e57fe5b90602001906020020151611642565b6005811115611c2857fe5b1415611c3357600080fd5b611c44600182510382600154612208565b50565b60005b8151811015611c7b57611c738282815181101515611c6457fe5b90602001906020020151611c84565b600101611c4a565b5050565b505050565b6000806004544210158015611ca15750600454630784ce00014211155b8015611d375750600080546001546040805160e060020a6302571be30281526004810192909252513093600160a060020a03909316926302571be392602480820193602093909283900390910190829087803b158015611d0057600080fd5b505af1158015611d14573d6000803e3d6000fd5b505050506040513d6020811015611d2a57600080fd5b5051600160a060020a0316145b1515611d4257600080fd5b611d4b83611642565b91506001826005811115611d5b57fe5b1415611d6657611c7f565b6000826005811115611d7457fe5b14611d7e57600080fd5b5060008281526002602081815260408084204261012c0160018201819055938101859055600381019490945580519283525185927f87e97e825a1d1fa0c54e1d36c7506c1dea8b1efd451fe68b000cf96f7cf4000392908290030190a2505050565b60015481565b611def82611c47565b611c7b81611aff565b600080546001546040805160e060020a6302571be30281526004810192909252513092600160a060020a0316916302571be391602480830192602092919082900301818887803b158015611e4b57600080fd5b505af1158015611e5f573d6000803e3d6000fd5b505050506040513d6020811015611e7557600080fd5b5051600160a060020a03161415611c7b5760008054600154604080517f06ab592300000000000000000000000000000000000000000000000000000000815260048101929092526024820186905230604483015251600160a060020a03909216926306ab59239260648084019382900301818387803b158015611ef757600080fd5b505af1158015611f0b573d6000803e3d6000fd5b5050600154604080519182526020820186905280519182900381018220600080547f1896f70a00000000000000000000000000000000000000000000000000000000855260048501839052602485018290529251919650600160a060020a039092169450631896f70a935060448084019382900301818387803b158015611f9157600080fd5b505af1158015611fa5573d6000803e3d6000fd5b505060008054604080517f5b0fc9c300000000000000000000000000000000000000000000000000000000815260048101879052602481018490529051600160a060020a039092169450635b0fc9c39350604480820193929182900301818387803b15801561201357600080fd5b505af1158015612027573d6000803e3d6000fd5b505050505050565b805160009060018381019184010182805b828410156120d05750825160ff166080811015612062576001840193506120c5565b60e08160ff161015612079576002840193506120c5565b60f08160ff161015612090576003840193506120c5565b60f88160ff1610156120a7576004840193506120c5565b60fc8160ff1610156120be576005840193506120c5565b6006840193505b600190910190612040565b50949350505050565b6000818311156120ea57508161182c565b508061182c565b6000818310156120ea57508161182c565b600080546001546040805160e060020a6302571be30281526004810192909252513093600160a060020a03909316926302571be392602480820193602093909283900390910190829087803b15801561215a57600080fd5b505af115801561216e573d6000803e3d6000fd5b505050506040513d602081101561218457600080fd5b5051600160a060020a03161415611c7b5760008054600154604080517f06ab5923000000000000000000000000000000000000000000000000000000008152600481019290925260248201869052600160a060020a03858116604484015290519216926306ab59239260648084019382900301818387803b15801561201357600080fd5b6000548251600160a060020a03909116906306ab592390839085908790811061222d57fe5b602090810290910101516040805160e060020a63ffffffff86160281526004810193909352602483019190915230604483015251606480830192600092919082900301818387803b15801561228157600080fd5b505af1158015612295573d6000803e3d6000fd5b505050508082848151811015156122a857fe5b60209081029091018101516040805193845291830152805191829003019020905060008311156122e0576122e0600184038383612208565b60008054604080517f1896f70a00000000000000000000000000000000000000000000000000000000815260048101859052602481018490529051600160a060020a0390921692631896f70a9260448084019382900301818387803b15801561234857600080fd5b505af115801561235c573d6000803e3d6000fd5b505060008054604080517f5b0fc9c300000000000000000000000000000000000000000000000000000000815260048101879052602481018490529051600160a060020a039092169450635b0fc9c39350604480820193929182900301818387803b1580156123ca57600080fd5b505af11580156123de573d6000803e3d6000fd5b50505050505050565b6040516104d5806123f883390190560060806040526040516020806104d5833981016040525160018054600160a060020a03909216600160a060020a0319928316178155600080549092163317909155426003556005805460ff1916909117905534600455610472806100636000396000f3006080604052600436106100a35763ffffffff7c010000000000000000000000000000000000000000000000000000000060003504166305b3441081146100a85780630b5ab3d5146100cf57806313af4035146100e65780632b20e397146101075780633fa4f24514610138578063674f220f1461014d5780638da5cb5b14610162578063b0c8097214610177578063bbe4277114610194578063faab9d39146101ac575b600080fd5b3480156100b457600080fd5b506100bd6101cd565b60408051918252519081900360200190f35b3480156100db57600080fd5b506100e46101d3565b005b3480156100f257600080fd5b506100e4600160a060020a0360043516610218565b34801561011357600080fd5b5061011c6102b6565b60408051600160a060020a039092168252519081900360200190f35b34801561014457600080fd5b506100bd6102c5565b34801561015957600080fd5b5061011c6102cb565b34801561016e57600080fd5b5061011c6102da565b34801561018357600080fd5b506100e460043560243515156102e9565b3480156101a057600080fd5b506100e4600435610369565b3480156101b857600080fd5b506100e4600160a060020a0360043516610400565b60035481565b60055460ff16156101e357600080fd5b600154604051600160a060020a0390911690303180156108fc02916000818181858888f19350505050156102165761deadff5b565b600054600160a060020a0316331461022f57600080fd5b600160a060020a038116151561024457600080fd5b600180546002805473ffffffffffffffffffffffffffffffffffffffff19908116600160a060020a03808516919091179092559084169116811790915560408051918252517fa2ea9883a321a3e97b8266c2b078bfeec6d50c711ed71f874a90d500ae2eaf369181900360200190a150565b600054600160a060020a031681565b60045481565b600254600160a060020a031681565b600154600160a060020a031681565b600054600160a060020a0316331461030057600080fd5b60055460ff16151561031157600080fd5b60045482111561032057600080fd5b6004829055600154604051600160a060020a0390911690303184900380156108fc02916000818181858888f193505050508061035a575080155b151561036557600080fd5b5050565b600054600160a060020a0316331461038057600080fd5b60055460ff16151561039157600080fd5b6005805460ff1916905560405161dead906103e83031848203020480156108fc02916000818181858888f1935050505015156103cc57600080fd5b6040517fbb2ce2f51803bba16bc85282b47deeea9a5c6223eabea1077be696b3f265cf1390600090a16103fd6101d3565b50565b600054600160a060020a0316331461041757600080fd5b6000805473ffffffffffffffffffffffffffffffffffffffff1916600160a060020a03929092169190911790555600a165627a7a723058204fc9deba2cff51858414d322a79d584cbbb4178df2e91972b6707c257412ed9300297b6c4b278d165a6b33958f8ea5dfb00c8c9d4d0acf1985bef5d10786898bc3e7a165627a7a72305820c0cc8aa805e8898f18c14c8c607e8e13c6999c7f5c5838c6583130c14738771b0029",
  "source": "pragma solidity ^0.4.18;\n\n\n/*\n\nTemporary Hash Registrar\n========================\n\nThis is a simplified version of a hash registrar. It is purporsefully limited:\nnames cannot be six letters or shorter, new auctions will stop after 4 years.\n\nThe plan is to test the basic features and then move to a new contract in at most\n2 years, when some sort of renewal mechanism will be enabled.\n*/\n\n\nimport \"@ensdomains/ens/contracts/ENS.sol\";\nimport \"@ensdomains/ens/contracts/Deed.sol\";\n\n/**\n * @title Registrar\n * @dev The registrar handles the auction process for each subnode of the node it owns.\n */\ncontract Registrar {\n    ENS public ens;\n    bytes32 public rootNode;\n\n    mapping (bytes32 => Entry) _entries;\n    mapping (address => mapping (bytes32 => Deed)) public sealedBids;\n\n    enum Mode { Open, Auction, Owned, Forbidden, Reveal, NotYetAvailable }\n\n    // uint32 constant totalAuctionLength = 5 days;\n    // uint32 constant revealPeriod = 48 hours;\n    // uint32 public constant launchLength = 8 weeks;\n    uint32 constant totalAuctionLength = 5 minutes;\n    uint32 constant revealPeriod = 2 minutes;\n    uint32 public constant launchLength = 10 seconds;\n\n    uint constant minPrice = 0.01 ether;\n    uint public registryStarted;\n\n    event AuctionStarted(bytes32 indexed hash, uint registrationDate);\n    event NewBid(bytes32 indexed hash, address indexed bidder, uint deposit);\n    event BidRevealed(bytes32 indexed hash, address indexed owner, uint value, uint8 status);\n    event HashRegistered(bytes32 indexed hash, address indexed owner, uint value, uint registrationDate);\n    event HashReleased(bytes32 indexed hash, uint value);\n    event HashInvalidated(bytes32 indexed hash, string indexed name, uint value, uint registrationDate);\n\n    struct Entry {\n        Deed deed;\n        uint registrationDate;\n        uint value;\n        uint highestBid;\n    }\n\n    modifier inState(bytes32 _hash, Mode _state) {\n        require(state(_hash) == _state);\n        _;\n    }\n\n    modifier onlyOwner(bytes32 _hash) {\n        require(state(_hash) == Mode.Owned && msg.sender == _entries[_hash].deed.owner());\n        _;\n    }\n\n    modifier registryOpen() {\n        require(\n            now >= registryStarted\n            && now <= registryStarted + 4 years\n            && ens.owner(rootNode) == address(this)\n        );\n        _;\n    }\n\n    /**\n     * @dev Constructs a new Registrar, with the provided address as the owner of the root node.\n     *\n     * @param _ens The address of the ENS\n     * @param _rootNode The hash of the rootnode.\n     */\n    function Registrar(ENS _ens, bytes32 _rootNode, uint _startDate) public {\n        ens = _ens;\n        rootNode = _rootNode;\n        registryStarted = _startDate > 0 ? _startDate : now;\n    }\n\n    /**\n     * @dev Start an auction for an available hash\n     *\n     * @param _hash The hash to start an auction on\n     */\n    function startAuction(bytes32 _hash) public registryOpen() {\n        Mode mode = state(_hash);\n        if (mode == Mode.Auction) return;\n        require(mode == Mode.Open);\n\n        Entry storage newAuction = _entries[_hash];\n        newAuction.registrationDate = now + totalAuctionLength;\n        newAuction.value = 0;\n        newAuction.highestBid = 0;\n        AuctionStarted(_hash, newAuction.registrationDate);\n    }\n\n    /**\n     * @dev Start multiple auctions for better anonymity\n     *\n     * Anyone can start an auction by sending an array of hashes that they want to bid for.\n     * Arrays are sent so that someone can open up an auction for X dummy hashes when they\n     * are only really interested in bidding for one. This will increase the cost for an\n     * attacker to simply bid blindly on all new auctions. Dummy auctions that are\n     * open but not bid on are closed after a week.\n     *\n     * @param _hashes An array of hashes, at least one of which you presumably want to bid on\n     */\n    function startAuctions(bytes32[] _hashes) public {\n        for (uint i = 0; i < _hashes.length; i ++) {\n            startAuction(_hashes[i]);\n        }\n    }\n\n    /**\n     * @dev Submit a new sealed bid on a desired hash in a blind auction\n     *\n     * Bids are sent by sending a message to the main contract with a hash and an amount. The hash\n     * contains information about the bid, including the bidded hash, the bid amount, and a random\n     * salt. Bids are not tied to any one auction until they are revealed. The value of the bid\n     * itself can be masqueraded by sending more than the value of your actual bid. This is\n     * followed by a 48h reveal period. Bids revealed after this period will be burned and the ether unrecoverable.\n     * Since this is an auction, it is expected that most public hashes, like known domains and common dictionary\n     * words, will have multiple bidders pushing the price up.\n     *\n     * @param sealedBid A sealedBid, created by the shaBid function\n     */\n    function newBid(bytes32 sealedBid) public payable {\n        require(address(sealedBids[msg.sender][sealedBid]) == 0x0);\n        require(msg.value >= minPrice);\n\n        // Creates a new hash contract with the owner\n        Deed newBid = (new Deed).value(msg.value)(msg.sender);\n        sealedBids[msg.sender][sealedBid] = newBid;\n        NewBid(sealedBid, msg.sender, msg.value);\n    }\n\n    /**\n     * @dev Start a set of auctions and bid on one of them\n     *\n     * This method functions identically to calling `startAuctions` followed by `newBid`,\n     * but all in one transaction.\n     *\n     * @param hashes A list of hashes to start auctions on.\n     * @param sealedBid A sealed bid for one of the auctions.\n     */\n    function startAuctionsAndBid(bytes32[] hashes, bytes32 sealedBid) public payable {\n        startAuctions(hashes);\n        newBid(sealedBid);\n    }\n\n    /**\n     * @dev Submit the properties of a bid to reveal them\n     *\n     * @param _hash The node in the sealedBid\n     * @param _value The bid amount in the sealedBid\n     * @param _salt The sale in the sealedBid\n     */\n    function unsealBid(bytes32 _hash, uint _value, bytes32 _salt) public {\n        bytes32 seal = shaBid(_hash, msg.sender, _value, _salt);\n        Deed bid = sealedBids[msg.sender][seal];\n        require(address(bid) != 0);\n\n        sealedBids[msg.sender][seal] = Deed(0);\n        Entry storage h = _entries[_hash];\n        uint value = min(_value, bid.value());\n        bid.setBalance(value, true);\n\n        var auctionState = state(_hash);\n        if (auctionState == Mode.Owned) {\n            // Too late! Bidder loses their bid. Gets 0.5% back.\n            bid.closeDeed(5);\n            BidRevealed(_hash, msg.sender, value, 1);\n        } else if (auctionState != Mode.Reveal) {\n            // Invalid phase\n            revert();\n        } else if (value < minPrice || bid.creationDate() > h.registrationDate - revealPeriod) {\n            // Bid too low or too late, refund 99.5%\n            bid.closeDeed(995);\n            BidRevealed(_hash, msg.sender, value, 0);\n        } else if (value > h.highestBid) {\n            // New winner\n            // Cancel the other bid, refund 99.5%\n            if (address(h.deed) != 0) {\n                Deed previousWinner = h.deed;\n                previousWinner.closeDeed(995);\n            }\n\n            // Set new winner\n            // Per the rules of a vickery auction, the value becomes the previous highestBid\n            h.value = h.highestBid;  // will be zero if there's only 1 bidder\n            h.highestBid = value;\n            h.deed = bid;\n            BidRevealed(_hash, msg.sender, value, 2);\n        } else if (value > h.value) {\n            // Not winner, but affects second place\n            h.value = value;\n            bid.closeDeed(995);\n            BidRevealed(_hash, msg.sender, value, 3);\n        } else {\n            // Bid doesn't affect auction\n            bid.closeDeed(995);\n            BidRevealed(_hash, msg.sender, value, 4);\n        }\n    }\n\n    /**\n     * @dev Cancel a bid\n     *\n     * @param seal The value returned by the shaBid function\n     */\n    function cancelBid(address bidder, bytes32 seal) public {\n        Deed bid = sealedBids[bidder][seal];\n\n        // If a sole bidder does not `unsealBid` in time, they have a few more days\n        // where they can call `startAuction` (again) and then `unsealBid` during\n        // the revealPeriod to get back their bid value.\n        // For simplicity, they should call `startAuction` within\n        // 9 days (2 weeks - totalAuctionLength), otherwise their bid will be\n        // cancellable by anyone.\n        require(address(bid) != 0 && now >= bid.creationDate() + totalAuctionLength + 2 weeks);\n\n        // Send the canceller 0.5% of the bid, and burn the rest.\n        bid.setOwner(msg.sender);\n        bid.closeDeed(5);\n        sealedBids[bidder][seal] = Deed(0);\n        BidRevealed(seal, bidder, 0, 5);\n    }\n\n    /**\n     * @dev Finalize an auction after the registration date has passed\n     *\n     * @param _hash The hash of the name the auction is for\n     */\n    function finalizeAuction(bytes32 _hash) public onlyOwner(_hash) {\n        Entry storage h = _entries[_hash];\n\n        // Handles the case when there's only a single bidder (h.value is zero)\n        h.value =  max(h.value, minPrice);\n        h.deed.setBalance(h.value, true);\n\n        trySetSubnodeOwner(_hash, h.deed.owner());\n        HashRegistered(_hash, h.deed.owner(), h.value, h.registrationDate);\n    }\n\n    /**\n     * @dev The owner of a domain may transfer it to someone else at any time.\n     *\n     * @param _hash The node to transfer\n     * @param newOwner The address to transfer ownership to\n     */\n    function transfer(bytes32 _hash, address newOwner) public onlyOwner(_hash) {\n        require(newOwner != 0);\n\n        Entry storage h = _entries[_hash];\n        h.deed.setOwner(newOwner);\n        trySetSubnodeOwner(_hash, newOwner);\n    }\n\n    /**\n     * @dev After some time, or if we're no longer the registrar, the owner can release\n     *      the name and get their ether back.\n     *\n     * @param _hash The node to release\n     */\n    function releaseDeed(bytes32 _hash) public onlyOwner(_hash) {\n        Entry storage h = _entries[_hash];\n        Deed deedContract = h.deed;\n\n        require(now >= h.registrationDate + 1 years || ens.owner(rootNode) != address(this));\n\n        h.value = 0;\n        h.highestBid = 0;\n        h.deed = Deed(0);\n\n        _tryEraseSingleNode(_hash);\n        deedContract.closeDeed(1000);\n        HashReleased(_hash, h.value);\n    }\n\n    /**\n     * @dev Submit a name 6 characters long or less. If it has been registered,\n     *      the submitter will earn 50% of the deed value.\n     *\n     * We are purposefully handicapping the simplified registrar as a way\n     * to force it into being restructured in a few years.\n     *\n     * @param unhashedName An invalid name to search for in the registry.\n     */\n    function invalidateName(string unhashedName) public inState(keccak256(unhashedName), Mode.Owned) {\n        require(strlen(unhashedName) <= 6);\n        bytes32 hash = keccak256(unhashedName);\n\n        Entry storage h = _entries[hash];\n\n        _tryEraseSingleNode(hash);\n\n        if (address(h.deed) != 0) {\n            // Reward the discoverer with 50% of the deed\n            // The previous owner gets 50%\n            h.value = max(h.value, minPrice);\n            h.deed.setBalance(h.value/2, false);\n            h.deed.setOwner(msg.sender);\n            h.deed.closeDeed(1000);\n        }\n\n        HashInvalidated(hash, unhashedName, h.value, h.registrationDate);\n\n        h.value = 0;\n        h.highestBid = 0;\n        h.deed = Deed(0);\n    }\n\n    /**\n     * @dev Allows anyone to delete the owner and resolver records for a (subdomain of) a\n     *      name that is not currently owned in the registrar. If passing, eg, 'foo.bar.eth',\n     *      the owner and resolver fields on 'foo.bar.eth' and 'bar.eth' will all be cleared.\n     *\n     * @param labels A series of label hashes identifying the name to zero out, rooted at the\n     *        registrar's root. Must contain at least one element. For instance, to zero\n     *        'foo.bar.eth' on a registrar that owns '.eth', pass an array containing\n     *        [keccak256('foo'), keccak256('bar')].\n     */\n    function eraseNode(bytes32[] labels) public {\n        require(labels.length != 0);\n        require(state(labels[labels.length - 1]) != Mode.Owned);\n\n        _eraseNodeHierarchy(labels.length - 1, labels, rootNode);\n    }\n\n    /**\n     * @dev Transfers the deed to the current registrar, if different from this one.\n     *\n     * Used during the upgrade process to a permanent registrar.\n     *\n     * @param _hash The name hash to transfer.\n     */\n    function transferRegistrars(bytes32 _hash) public onlyOwner(_hash) {\n        address registrar = ens.owner(rootNode);\n        require(registrar != address(this));\n\n        // Migrate the deed\n        Entry storage h = _entries[_hash];\n        h.deed.setRegistrar(registrar);\n\n        // Call the new registrar to accept the transfer\n        Registrar(registrar).acceptRegistrarTransfer(_hash, h.deed, h.registrationDate);\n\n        // Zero out the Entry\n        h.deed = Deed(0);\n        h.registrationDate = 0;\n        h.value = 0;\n        h.highestBid = 0;\n    }\n\n    /**\n     * @dev Accepts a transfer from a previous registrar; stubbed out here since there\n     *      is no previous registrar implementing this interface.\n     *\n     * @param hash The sha3 hash of the label to transfer.\n     * @param deed The Deed object for the name being transferred in.\n     * @param registrationDate The date at which the name was originally registered.\n     */\n    function acceptRegistrarTransfer(bytes32 hash, Deed deed, uint registrationDate) public {\n        hash; deed; registrationDate; // Don't warn about unused variables\n    }\n\n    // State transitions for names:\n    //   Open -> Auction (startAuction)\n    //   Auction -> Reveal\n    //   Reveal -> Owned\n    //   Reveal -> Open (if nobody bid)\n    //   Owned -> Open (releaseDeed or invalidateName)\n    function state(bytes32 _hash) public view returns (Mode) {\n        Entry storage entry = _entries[_hash];\n\n        if (!isAllowed(_hash, now)) {\n            return Mode.NotYetAvailable;\n        } else if (now < entry.registrationDate) {\n            if (now < entry.registrationDate - revealPeriod) {\n                return Mode.Auction;\n            } else {\n                return Mode.Reveal;\n            }\n        } else {\n            if (entry.highestBid == 0) {\n                return Mode.Open;\n            } else {\n                return Mode.Owned;\n            }\n        }\n    }\n\n    function entries(bytes32 _hash) public view returns (Mode, address, uint, uint, uint) {\n        Entry storage h = _entries[_hash];\n        return (state(_hash), h.deed, h.registrationDate, h.value, h.highestBid);\n    }\n\n    /**\n     * @dev Determines if a name is available for registration yet\n     *\n     * Each name will be assigned a random date in which its auction\n     * can be started, from 0 to 8 weeks\n     *\n     * @param _hash The hash to start an auction on\n     * @param _timestamp The timestamp to query about\n     */\n    function isAllowed(bytes32 _hash, uint _timestamp) public view returns (bool allowed) {\n        return _timestamp > getAllowedTime(_hash);\n    }\n\n    /**\n     * @dev Returns available date for hash\n     *\n     * The available time from the `registryStarted` for a hash is proportional\n     * to its numeric value.\n     *\n     * @param _hash The hash to start an auction on\n     */\n    function getAllowedTime(bytes32 _hash) public view returns (uint) {\n        return registryStarted + ((launchLength * (uint(_hash) >> 128)) >> 128);\n        // Right shift operator: a >> b == a / 2**b\n    }\n\n    /**\n     * @dev Hash the values required for a secret bid\n     *\n     * @param hash The node corresponding to the desired namehash\n     * @param value The bid amount\n     * @param salt A random value to ensure secrecy of the bid\n     * @return The hash of the bid values\n     */\n    function shaBid(bytes32 hash, address owner, uint value, bytes32 salt) public pure returns (bytes32) {\n        return keccak256(hash, owner, value, salt);\n    }\n\n    function _tryEraseSingleNode(bytes32 label) internal {\n        if (ens.owner(rootNode) == address(this)) {\n            ens.setSubnodeOwner(rootNode, label, address(this));\n            bytes32 node = keccak256(rootNode, label);\n            ens.setResolver(node, 0);\n            ens.setOwner(node, 0);\n        }\n    }\n\n    function _eraseNodeHierarchy(uint idx, bytes32[] labels, bytes32 node) internal {\n        // Take ownership of the node\n        ens.setSubnodeOwner(node, labels[idx], address(this));\n        node = keccak256(node, labels[idx]);\n\n        // Recurse if there are more labels\n        if (idx > 0) {\n            _eraseNodeHierarchy(idx - 1, labels, node);\n        }\n\n        // Erase the resolver and owner records\n        ens.setResolver(node, 0);\n        ens.setOwner(node, 0);\n    }\n\n    /**\n     * @dev Assign the owner in ENS, if we're still the registrar\n     *\n     * @param _hash hash to change owner\n     * @param _newOwner new owner to transfer to\n     */\n    function trySetSubnodeOwner(bytes32 _hash, address _newOwner) internal {\n        if (ens.owner(rootNode) == address(this))\n            ens.setSubnodeOwner(rootNode, _hash, _newOwner);\n    }\n\n    /**\n     * @dev Returns the maximum of two unsigned integers\n     *\n     * @param a A number to compare\n     * @param b A number to compare\n     * @return The maximum of two unsigned integers\n     */\n    function max(uint a, uint b) internal pure returns (uint) {\n        if (a > b)\n            return a;\n        else\n            return b;\n    }\n\n    /**\n     * @dev Returns the minimum of two unsigned integers\n     *\n     * @param a A number to compare\n     * @param b A number to compare\n     * @return The minimum of two unsigned integers\n     */\n    function min(uint a, uint b) internal pure returns (uint) {\n        if (a < b)\n            return a;\n        else\n            return b;\n    }\n\n    /**\n     * @dev Returns the length of a given string\n     *\n     * @param s The string to measure the length of\n     * @return The length of the input string\n     */\n    function strlen(string s) internal pure returns (uint) {\n        s; // Don't warn about unused variables\n        // Starting here means the LSB will be the byte we care about\n        uint ptr;\n        uint end;\n        assembly {\n            ptr := add(s, 1)\n            end := add(mload(s), ptr)\n        }\n        for (uint len = 0; ptr < end; len++) {\n            uint8 b;\n            assembly { b := and(mload(ptr), 0xFF) }\n            if (b < 0x80) {\n                ptr += 1;\n            } else if (b < 0xE0) {\n                ptr += 2;\n            } else if (b < 0xF0) {\n                ptr += 3;\n            } else if (b < 0xF8) {\n                ptr += 4;\n            } else if (b < 0xFC) {\n                ptr += 5;\n            } else {\n                ptr += 6;\n            }\n        }\n        return len;\n    }\n\n}\n",
  "sourcePath": "/Users/vietlq/projects/ens-namex/contracts/ens/TestRegistrarSimplified.sol",
  "compiler": {
    "name": "solc",
    "version": "0.4.24+commit.e67f0147.Emscripten.clang"
  },
  "schemaVersion": "2.0.1",
  "updatedAt": "2018-08-15T13:42:04.683Z"
}